{
  "abi": [
    {
      "inputs": [
        {
          "internalType": "string",
          "name": "_name",
          "type": "string"
        },
        {
          "internalType": "string",
          "name": "_symbol",
          "type": "string"
        },
        {
          "internalType": "uint256",
          "name": "_price",
          "type": "uint256"
        },
        {
          "internalType": "uint256",
          "name": "_maxSupply",
          "type": "uint256"
        },
        {
          "internalType": "uint256",
          "name": "_maxPerMint",
          "type": "uint256"
        },
        {
          "internalType": "address",
          "name": "artist",
          "type": "address"
        }
      ],
      "stateMutability": "nonpayable",
      "type": "constructor"
    },
    {
      "anonymous": false,
      "inputs": [
        {
          "indexed": true,
          "internalType": "address",
          "name": "owner",
          "type": "address"
        },
        {
          "indexed": true,
          "internalType": "address",
          "name": "approved",
          "type": "address"
        },
        {
          "indexed": true,
          "internalType": "uint256",
          "name": "tokenId",
          "type": "uint256"
        }
      ],
      "name": "Approval",
      "type": "event"
    },
    {
      "anonymous": false,
      "inputs": [
        {
          "indexed": true,
          "internalType": "address",
          "name": "owner",
          "type": "address"
        },
        {
          "indexed": true,
          "internalType": "address",
          "name": "operator",
          "type": "address"
        },
        {
          "indexed": false,
          "internalType": "bool",
          "name": "approved",
          "type": "bool"
        }
      ],
      "name": "ApprovalForAll",
      "type": "event"
    },
    {
      "anonymous": false,
      "inputs": [
        {
          "indexed": true,
          "internalType": "address",
          "name": "previousOwner",
          "type": "address"
        },
        {
          "indexed": true,
          "internalType": "address",
          "name": "newOwner",
          "type": "address"
        }
      ],
      "name": "OwnershipTransferred",
      "type": "event"
    },
    {
      "anonymous": false,
      "inputs": [
        {
          "indexed": true,
          "internalType": "address",
          "name": "from",
          "type": "address"
        },
        {
          "indexed": true,
          "internalType": "address",
          "name": "to",
          "type": "address"
        },
        {
          "indexed": true,
          "internalType": "uint256",
          "name": "tokenId",
          "type": "uint256"
        }
      ],
      "name": "Transfer",
      "type": "event"
    },
    {
      "stateMutability": "payable",
      "type": "fallback"
    },
    {
      "inputs": [],
      "name": "MAX_PER_MINT",
      "outputs": [
        {
          "internalType": "uint256",
          "name": "",
          "type": "uint256"
        }
      ],
      "stateMutability": "view",
      "type": "function"
    },
    {
      "inputs": [],
      "name": "MAX_SUPPLY",
      "outputs": [
        {
          "internalType": "uint256",
          "name": "",
          "type": "uint256"
        }
      ],
      "stateMutability": "view",
      "type": "function"
    },
    {
      "inputs": [],
      "name": "PRICE",
      "outputs": [
        {
          "internalType": "uint256",
          "name": "",
          "type": "uint256"
        }
      ],
      "stateMutability": "view",
      "type": "function"
    },
    {
      "inputs": [
        {
          "internalType": "address",
          "name": "to",
          "type": "address"
        },
        {
          "internalType": "uint256",
          "name": "tokenId",
          "type": "uint256"
        }
      ],
      "name": "approve",
      "outputs": [],
      "stateMutability": "nonpayable",
      "type": "function"
    },
    {
      "inputs": [
        {
          "internalType": "address",
          "name": "owner",
          "type": "address"
        }
      ],
      "name": "balanceOf",
      "outputs": [
        {
          "internalType": "uint256",
          "name": "",
          "type": "uint256"
        }
      ],
      "stateMutability": "view",
      "type": "function"
    },
    {
      "inputs": [],
      "name": "can_mint",
      "outputs": [
        {
          "internalType": "bool",
          "name": "",
          "type": "bool"
        }
      ],
      "stateMutability": "view",
      "type": "function"
    },
    {
      "inputs": [
        {
          "internalType": "uint256",
          "name": "tokenId",
          "type": "uint256"
        }
      ],
      "name": "getApproved",
      "outputs": [
        {
          "internalType": "address",
          "name": "",
          "type": "address"
        }
      ],
      "stateMutability": "view",
      "type": "function"
    },
    {
      "inputs": [],
      "name": "getBaseURI",
      "outputs": [
        {
          "internalType": "string",
          "name": "",
          "type": "string"
        }
      ],
      "stateMutability": "view",
      "type": "function"
    },
    {
      "inputs": [
        {
          "internalType": "address",
          "name": "owner",
          "type": "address"
        },
        {
          "internalType": "address",
          "name": "operator",
          "type": "address"
        }
      ],
      "name": "isApprovedForAll",
      "outputs": [
        {
          "internalType": "bool",
          "name": "",
          "type": "bool"
        }
      ],
      "stateMutability": "view",
      "type": "function"
    },
    {
      "inputs": [
        {
          "internalType": "uint256",
          "name": "num",
          "type": "uint256"
        },
        {
          "internalType": "address",
          "name": "addr",
          "type": "address"
        }
      ],
      "name": "mintTo",
      "outputs": [],
      "stateMutability": "payable",
      "type": "function"
    },
    {
      "inputs": [],
      "name": "name",
      "outputs": [
        {
          "internalType": "string",
          "name": "",
          "type": "string"
        }
      ],
      "stateMutability": "view",
      "type": "function"
    },
    {
      "inputs": [],
      "name": "owner",
      "outputs": [
        {
          "internalType": "address",
          "name": "",
          "type": "address"
        }
      ],
      "stateMutability": "view",
      "type": "function"
    },
    {
      "inputs": [
        {
          "internalType": "uint256",
          "name": "tokenId",
          "type": "uint256"
        }
      ],
      "name": "ownerOf",
      "outputs": [
        {
          "internalType": "address",
          "name": "",
          "type": "address"
        }
      ],
      "stateMutability": "view",
      "type": "function"
    },
    {
      "inputs": [],
      "name": "renounceOwnership",
      "outputs": [],
      "stateMutability": "nonpayable",
      "type": "function"
    },
    {
      "inputs": [
        {
          "internalType": "address",
          "name": "from",
          "type": "address"
        },
        {
          "internalType": "address",
          "name": "to",
          "type": "address"
        },
        {
          "internalType": "uint256",
          "name": "tokenId",
          "type": "uint256"
        }
      ],
      "name": "safeTransferFrom",
      "outputs": [],
      "stateMutability": "nonpayable",
      "type": "function"
    },
    {
      "inputs": [
        {
          "internalType": "address",
          "name": "from",
          "type": "address"
        },
        {
          "internalType": "address",
          "name": "to",
          "type": "address"
        },
        {
          "internalType": "uint256",
          "name": "tokenId",
          "type": "uint256"
        },
        {
          "internalType": "bytes",
          "name": "data",
          "type": "bytes"
        }
      ],
      "name": "safeTransferFrom",
      "outputs": [],
      "stateMutability": "nonpayable",
      "type": "function"
    },
    {
      "inputs": [
        {
          "internalType": "address",
          "name": "operator",
          "type": "address"
        },
        {
          "internalType": "bool",
          "name": "approved",
          "type": "bool"
        }
      ],
      "name": "setApprovalForAll",
      "outputs": [],
      "stateMutability": "nonpayable",
      "type": "function"
    },
    {
      "inputs": [
        {
          "internalType": "string",
          "name": "baseURI",
          "type": "string"
        }
      ],
      "name": "setBaseURI",
      "outputs": [],
      "stateMutability": "nonpayable",
      "type": "function"
    },
    {
      "inputs": [
        {
          "internalType": "bytes4",
          "name": "interfaceId",
          "type": "bytes4"
        }
      ],
      "name": "supportsInterface",
      "outputs": [
        {
          "internalType": "bool",
          "name": "",
          "type": "bool"
        }
      ],
      "stateMutability": "view",
      "type": "function"
    },
    {
      "inputs": [],
      "name": "symbol",
      "outputs": [
        {
          "internalType": "string",
          "name": "",
          "type": "string"
        }
      ],
      "stateMutability": "view",
      "type": "function"
    },
    {
      "inputs": [],
      "name": "toggleMint",
      "outputs": [],
      "stateMutability": "nonpayable",
      "type": "function"
    },
    {
      "inputs": [
        {
          "internalType": "uint256",
          "name": "index",
          "type": "uint256"
        }
      ],
      "name": "tokenByIndex",
      "outputs": [
        {
          "internalType": "uint256",
          "name": "",
          "type": "uint256"
        }
      ],
      "stateMutability": "view",
      "type": "function"
    },
    {
      "inputs": [
        {
          "internalType": "address",
          "name": "owner",
          "type": "address"
        },
        {
          "internalType": "uint256",
          "name": "index",
          "type": "uint256"
        }
      ],
      "name": "tokenOfOwnerByIndex",
      "outputs": [
        {
          "internalType": "uint256",
          "name": "",
          "type": "uint256"
        }
      ],
      "stateMutability": "view",
      "type": "function"
    },
    {
      "inputs": [
        {
          "internalType": "uint256",
          "name": "tokenId",
          "type": "uint256"
        }
      ],
      "name": "tokenURI",
      "outputs": [
        {
          "internalType": "string",
          "name": "",
          "type": "string"
        }
      ],
      "stateMutability": "view",
      "type": "function"
    },
    {
      "inputs": [],
      "name": "totalSupply",
      "outputs": [
        {
          "internalType": "uint256",
          "name": "",
          "type": "uint256"
        }
      ],
      "stateMutability": "view",
      "type": "function"
    },
    {
      "inputs": [
        {
          "internalType": "address",
          "name": "from",
          "type": "address"
        },
        {
          "internalType": "address",
          "name": "to",
          "type": "address"
        },
        {
          "internalType": "uint256",
          "name": "tokenId",
          "type": "uint256"
        }
      ],
      "name": "transferFrom",
      "outputs": [],
      "stateMutability": "nonpayable",
      "type": "function"
    },
    {
      "inputs": [
        {
          "internalType": "address",
          "name": "newOwner",
          "type": "address"
        }
      ],
      "name": "transferOwnership",
      "outputs": [],
      "stateMutability": "nonpayable",
      "type": "function"
    },
    {
      "inputs": [
        {
          "internalType": "uint256[]",
          "name": "numericParams",
          "type": "uint256[]"
        }
      ],
      "name": "updateParams",
      "outputs": [],
      "stateMutability": "nonpayable",
      "type": "function"
    },
    {
      "inputs": [],
      "name": "withdraw",
      "outputs": [],
      "stateMutability": "nonpayable",
      "type": "function"
    },
    {
      "stateMutability": "payable",
      "type": "receive"
    }
  ],
  "bytecode": {
    "object": "0x60806040523480156200001157600080fd5b5060405162002a4d38038062002a4d833981016040819052620000349162000861565b8551869086906200004d90600090602085019062000704565b5080516200006390600190602084019062000704565b505050620000806200007a6200015f60201b60201c565b62000163565b600b849055600c839055600d829055601080546001600160a01b0319166001600160a01b038316179055620000bd600a546001600160a01b031690565b601180546001600160a01b0319166001600160a01b039290921691909117905560005b6005811015620001175760105462000102906001600160a01b031682620001b5565b806200010e8162000962565b915050620000e0565b5060055b600f81101562000152576011546200013d906001600160a01b031682620001b5565b80620001498162000962565b9150506200011b565b50505050505050620009d8565b3390565b600a80546001600160a01b038381166001600160a01b0319831681179093556040519116919082907f8be0079c531659141344cd1fd0a4f28419497f9722a3daafe3b4186f6b6457e090600090a35050565b6001600160a01b038216620002115760405162461bcd60e51b815260206004820181905260248201527f4552433732313a206d696e7420746f20746865207a65726f206164647265737360448201526064015b60405180910390fd5b6000818152600260205260409020546001600160a01b031615620002785760405162461bcd60e51b815260206004820152601c60248201527f4552433732313a20746f6b656e20616c7265616479206d696e74656400000000604482015260640162000208565b620002886000838360016200035a565b6000818152600260205260409020546001600160a01b031615620002ef5760405162461bcd60e51b815260206004820152601c60248201527f4552433732313a20746f6b656e20616c7265616479206d696e74656400000000604482015260640162000208565b6001600160a01b038216600081815260036020908152604080832080546001019055848352600290915280822080546001600160a01b0319168417905551839291907fddf252ad1be2c89b69c2b068fc378daa952ba7f163c4a11628f55a4df523b3ef908290a45050565b6200037384848484620004be60201b62000b0c1760201c565b6001811115620003ec5760405162461bcd60e51b815260206004820152603560248201527f455243373231456e756d657261626c653a20636f6e736563757469766520747260448201527f616e7366657273206e6f7420737570706f727465640000000000000000000000606482015260840162000208565b816001600160a01b0385166200044b576200044581600880546000838152600960205260408120829055600182018355919091527ff3f7a9fe364faab93b216da50a3214154f22a0a2b415b23a84c8169e8b636ee30155565b62000471565b836001600160a01b0316856001600160a01b0316146200047157620004718582620004c4565b6001600160a01b03841662000491576200048b8162000571565b620004b7565b846001600160a01b0316846001600160a01b031614620004b757620004b784826200062b565b5050505050565b50505050565b60006001620004de846200067c60201b620009e81760201c565b620004ea91906200090b565b6000838152600760205260409020549091508082146200053e576001600160a01b03841660009081526006602090815260408083208584528252808320548484528184208190558352600790915290208190555b5060009182526007602090815260408084208490556001600160a01b039094168352600681528383209183525290812055565b60085460009062000585906001906200090b565b60008381526009602052604081205460088054939450909284908110620005b057620005b0620009ac565b906000526020600020015490508060088381548110620005d457620005d4620009ac565b60009182526020808320909101929092558281526009909152604080822084905585825281205560088054806200060f576200060f62000996565b6001900381819060005260206000200160009055905550505050565b600062000643836200067c60201b620009e81760201c565b6001600160a01b039093166000908152600660209081526040808320868452825280832085905593825260079052919091209190915550565b60006001600160a01b038216620006e85760405162461bcd60e51b815260206004820152602960248201527f4552433732313a2061646472657373207a65726f206973206e6f7420612076616044820152683634b21037bbb732b960b91b606482015260840162000208565b506001600160a01b031660009081526003602052604090205490565b828054620007129062000925565b90600052602060002090601f01602090048101928262000736576000855562000781565b82601f106200075157805160ff191683800117855562000781565b8280016001018555821562000781579182015b828111156200078157825182559160200191906001019062000764565b506200078f92915062000793565b5090565b5b808211156200078f576000815560010162000794565b600082601f830112620007bc57600080fd5b81516001600160401b0380821115620007d957620007d9620009c2565b604051601f8301601f19908116603f01168101908282118183101715620008045762000804620009c2565b816040528381526020925086838588010111156200082157600080fd5b600091505b8382101562000845578582018301518183018401529082019062000826565b83821115620008575760008385830101525b9695505050505050565b60008060008060008060c087890312156200087b57600080fd5b86516001600160401b03808211156200089357600080fd5b620008a18a838b01620007aa565b97506020890151915080821115620008b857600080fd5b50620008c789828a01620007aa565b604089015160608a015160808b015160a08c01519399509197509550935090506001600160a01b0381168114620008fd57600080fd5b809150509295509295509295565b60008282101562000920576200092062000980565b500390565b600181811c908216806200093a57607f821691505b602082108114156200095c57634e487b7160e01b600052602260045260246000fd5b50919050565b600060001982141562000979576200097962000980565b5060010190565b634e487b7160e01b600052601160045260246000fd5b634e487b7160e01b600052603160045260246000fd5b634e487b7160e01b600052603260045260246000fd5b634e487b7160e01b600052604160045260246000fd5b61206580620009e86000396000f3fe6080604052600436106101ae5760003560e01c80635c60596c116100eb57806395d89b411161008f578063c87b56dd11610061578063c87b56dd146104aa578063d3dd5fe0146104ca578063e985e9c5146104df578063f2fde38b1461052857005b806395d89b4114610442578063a22cb46514610457578063b723b34e14610477578063b88d4fde1461048a57005b8063714c5398116100c8578063714c5398146103e4578063715018a6146103f95780638d859f3e1461040e5780638da5cb5b1461042457005b80635c60596c1461038a5780636352211e146103a457806370a08231146103c457005b80632f745c59116101525780633f0e636b1161012f5780633f0e636b1461030a57806342842e0e1461032a5780634f6ccce71461034a57806355f804b31461036a57005b80632f745c59146102bf57806332cb6b0c146102df5780633ccfd60b146102f557005b8063095ea7b31161018b578063095ea7b31461024657806309d42b301461026657806318160ddd1461028a57806323b872dd1461029f57005b806301ffc9a7146101b757806306fdde03146101ec578063081812fc1461020e57005b366101b557005b005b3480156101c357600080fd5b506101d76101d2366004611c77565b610548565b60405190151581526020015b60405180910390f35b3480156101f857600080fd5b50610201610573565b6040516101e39190611dde565b34801561021a57600080fd5b5061022e610229366004611cfa565b610605565b6040516001600160a01b0390911681526020016101e3565b34801561025257600080fd5b506101b5610261366004611ba0565b61062c565b34801561027257600080fd5b5061027c600d5481565b6040519081526020016101e3565b34801561029657600080fd5b5060085461027c565b3480156102ab57600080fd5b506101b56102ba366004611aac565b610747565b3480156102cb57600080fd5b5061027c6102da366004611ba0565b610778565b3480156102eb57600080fd5b5061027c600c5481565b34801561030157600080fd5b506101b561080e565b34801561031657600080fd5b506101b5610325366004611bca565b61084d565b34801561033657600080fd5b506101b5610345366004611aac565b6108bb565b34801561035657600080fd5b5061027c610365366004611cfa565b6108d6565b34801561037657600080fd5b506101b5610385366004611cb1565b610969565b34801561039657600080fd5b50600e546101d79060ff1681565b3480156103b057600080fd5b5061022e6103bf366004611cfa565b610988565b3480156103d057600080fd5b5061027c6103df366004611a5e565b6109e8565b3480156103f057600080fd5b50610201610a6e565b34801561040557600080fd5b506101b5610a7d565b34801561041a57600080fd5b5061027c600b5481565b34801561043057600080fd5b50600a546001600160a01b031661022e565b34801561044e57600080fd5b50610201610a91565b34801561046357600080fd5b506101b5610472366004611b64565b610aa0565b6101b5610485366004611d13565b610aab565b34801561049657600080fd5b506101b56104a5366004611ae8565b610ada565b3480156104b657600080fd5b506102016104c5366004611cfa565b610b12565b3480156104d657600080fd5b506101b5610bbf565b3480156104eb57600080fd5b506101d76104fa366004611a79565b6001600160a01b03918216600090815260056020908152604080832093909416825291909152205460ff1690565b34801561053457600080fd5b506101b5610543366004611a5e565b610bdb565b60006001600160e01b0319821663780e9d6360e01b148061056d575061056d82610c51565b92915050565b60606000805461058290611f6b565b80601f01602080910402602001604051908101604052809291908181526020018280546105ae90611f6b565b80156105fb5780601f106105d0576101008083540402835291602001916105fb565b820191906000526020600020905b8154815290600101906020018083116105de57829003601f168201915b5050505050905090565b600061061082610ca1565b506000908152600460205260409020546001600160a01b031690565b600061063782610988565b9050806001600160a01b0316836001600160a01b031614156106aa5760405162461bcd60e51b815260206004820152602160248201527f4552433732313a20617070726f76616c20746f2063757272656e74206f776e656044820152603960f91b60648201526084015b60405180910390fd5b336001600160a01b03821614806106c657506106c681336104fa565b6107385760405162461bcd60e51b815260206004820152603d60248201527f4552433732313a20617070726f76652063616c6c6572206973206e6f7420746f60448201527f6b656e206f776e6572206f7220617070726f76656420666f7220616c6c00000060648201526084016106a1565b6107428383610d00565b505050565b6107513382610d6e565b61076d5760405162461bcd60e51b81526004016106a190611df1565b610742838383610ded565b6000610783836109e8565b82106107e55760405162461bcd60e51b815260206004820152602b60248201527f455243373231456e756d657261626c653a206f776e657220696e646578206f7560448201526a74206f6620626f756e647360a81b60648201526084016106a1565b506001600160a01b03919091166000908152600660209081526040808320938352929052205490565b600061081b600247611f06565b601154909150610834906001600160a01b031682610f5e565b60105461084a906001600160a01b031682610f5e565b50565b610855611077565b8060008151811061086857610868611fed565b6020026020010151600b819055508060018151811061088957610889611fed565b6020026020010151600c81905550806002815181106108aa576108aa611fed565b6020026020010151600d8190555050565b61074283838360405180602001604052806000815250610ada565b60006108e160085490565b82106109445760405162461bcd60e51b815260206004820152602c60248201527f455243373231456e756d657261626c653a20676c6f62616c20696e646578206f60448201526b7574206f6620626f756e647360a01b60648201526084016106a1565b6008828154811061095757610957611fed565b90600052602060002001549050919050565b610971611077565b805161098490600f906020840190611951565b5050565b6000818152600260205260408120546001600160a01b03168061056d5760405162461bcd60e51b8152602060048201526018602482015277115490cdcc8c4e881a5b9d985b1a59081d1bdad95b88125160421b60448201526064016106a1565b60006001600160a01b038216610a525760405162461bcd60e51b815260206004820152602960248201527f4552433732313a2061646472657373207a65726f206973206e6f7420612076616044820152683634b21037bbb732b960b91b60648201526084016106a1565b506001600160a01b031660009081526003602052604090205490565b6060600f805461058290611f6b565b610a85611077565b610a8f60006110d1565b565b60606001805461058290611f6b565b610984338383611123565b610ab3611077565b60005b8281101561074257610ac882826111f2565b80610ad281611fa6565b915050610ab6565b610ae43383610d6e565b610b005760405162461bcd60e51b81526004016106a190611df1565b610b0c8484848461120c565b50505050565b6000818152600260205260409020546060906001600160a01b0316610b635760405162461bcd60e51b81526020600482015260076024820152661253959053125160ca1b60448201526064016106a1565b6000610b6d610a6e565b90506000815111610b8d5760405180602001604052806000815250610bb8565b80610b978461123f565b604051602001610ba8929190611d62565b6040516020818303038152906040525b9392505050565b610bc7611077565b600e805460ff19811660ff90911615179055565b610be3611077565b6001600160a01b038116610c485760405162461bcd60e51b815260206004820152602660248201527f4f776e61626c653a206e6577206f776e657220697320746865207a65726f206160448201526564647265737360d01b60648201526084016106a1565b61084a816110d1565b60006001600160e01b031982166380ac58cd60e01b1480610c8257506001600160e01b03198216635b5e139f60e01b145b8061056d57506301ffc9a760e01b6001600160e01b031983161461056d565b6000818152600260205260409020546001600160a01b031661084a5760405162461bcd60e51b8152602060048201526018602482015277115490cdcc8c4e881a5b9d985b1a59081d1bdad95b88125160421b60448201526064016106a1565b600081815260046020526040902080546001600160a01b0319166001600160a01b0384169081179091558190610d3582610988565b6001600160a01b03167f8c5be1e5ebec7d5bd14f71427d1e84f3dd0314c0f7b2291e5b200ac8c7c3b92560405160405180910390a45050565b600080610d7a83610988565b9050806001600160a01b0316846001600160a01b03161480610dc157506001600160a01b0380821660009081526005602090815260408083209388168352929052205460ff165b80610de55750836001600160a01b0316610dda84610605565b6001600160a01b0316145b949350505050565b826001600160a01b0316610e0082610988565b6001600160a01b031614610e265760405162461bcd60e51b81526004016106a190611e90565b6001600160a01b038216610e885760405162461bcd60e51b8152602060048201526024808201527f4552433732313a207472616e7366657220746f20746865207a65726f206164646044820152637265737360e01b60648201526084016106a1565b610e9583838360016112dc565b826001600160a01b0316610ea882610988565b6001600160a01b031614610ece5760405162461bcd60e51b81526004016106a190611e90565b600081815260046020908152604080832080546001600160a01b03199081169091556001600160a01b0387811680865260038552838620805460001901905590871680865283862080546001019055868652600290945282852080549092168417909155905184937fddf252ad1be2c89b69c2b068fc378daa952ba7f163c4a11628f55a4df523b3ef91a4505050565b80471015610fae5760405162461bcd60e51b815260206004820152601d60248201527f416464726573733a20696e73756666696369656e742062616c616e636500000060448201526064016106a1565b6000826001600160a01b03168260405160006040518083038185875af1925050503d8060008114610ffb576040519150601f19603f3d011682016040523d82523d6000602084013e611000565b606091505b50509050806107425760405162461bcd60e51b815260206004820152603a60248201527f416464726573733a20756e61626c6520746f2073656e642076616c75652c207260448201527f6563697069656e74206d6179206861766520726576657274656400000000000060648201526084016106a1565b600a546001600160a01b03163314610a8f5760405162461bcd60e51b815260206004820181905260248201527f4f776e61626c653a2063616c6c6572206973206e6f7420746865206f776e657260448201526064016106a1565b600a80546001600160a01b038381166001600160a01b0319831681179093556040519116919082907f8be0079c531659141344cd1fd0a4f28419497f9722a3daafe3b4186f6b6457e090600090a35050565b816001600160a01b0316836001600160a01b031614156111855760405162461bcd60e51b815260206004820152601960248201527f4552433732313a20617070726f766520746f2063616c6c65720000000000000060448201526064016106a1565b6001600160a01b03838116600081815260056020908152604080832094871680845294825291829020805460ff191686151590811790915591519182527f17307eab39ab6107e8899845ad3d59bd9653f200f220920489ca2b5937696c31910160405180910390a3505050565b610984828260405180602001604052806000815250611410565b611217848484610ded565b61122384848484611443565b610b0c5760405162461bcd60e51b81526004016106a190611e3e565b6060600061124c83611550565b600101905060008167ffffffffffffffff81111561126c5761126c612003565b6040519080825280601f01601f191660200182016040528015611296576020820181803683370190505b5090508181016020015b600019016f181899199a1a9b1b9c1cb0b131b232b360811b600a86061a8153600a85049450846112cf576112d4565b6112a0565b509392505050565b600181111561134b5760405162461bcd60e51b815260206004820152603560248201527f455243373231456e756d657261626c653a20636f6e7365637574697665207472604482015274185b9cd9995c9cc81b9bdd081cdd5c1c1bdc9d1959605a1b60648201526084016106a1565b816001600160a01b0385166113a7576113a281600880546000838152600960205260408120829055600182018355919091527ff3f7a9fe364faab93b216da50a3214154f22a0a2b415b23a84c8169e8b636ee30155565b6113ca565b836001600160a01b0316856001600160a01b0316146113ca576113ca8582611628565b6001600160a01b0384166113e6576113e1816116c5565b611409565b846001600160a01b0316846001600160a01b031614611409576114098482611774565b5050505050565b61141a83836117b8565b6114276000848484611443565b6107425760405162461bcd60e51b81526004016106a190611e3e565b60006001600160a01b0384163b1561154557604051630a85bd0160e11b81526001600160a01b0385169063150b7a0290611487903390899088908890600401611da1565b602060405180830381600087803b1580156114a157600080fd5b505af19250505080156114d1575060408051601f3d908101601f191682019092526114ce91810190611c94565b60015b61152b573d8080156114ff576040519150601f19603f3d011682016040523d82523d6000602084013e611504565b606091505b5080516115235760405162461bcd60e51b81526004016106a190611e3e565b805181602001fd5b6001600160e01b031916630a85bd0160e11b149050610de5565b506001949350505050565b60008072184f03e93ff9f4daa797ed6e38ed64bf6a1f0160401b831061158f5772184f03e93ff9f4daa797ed6e38ed64bf6a1f0160401b830492506040015b6d04ee2d6d415b85acef810000000083106115bb576d04ee2d6d415b85acef8100000000830492506020015b662386f26fc1000083106115d957662386f26fc10000830492506010015b6305f5e10083106115f1576305f5e100830492506008015b612710831061160557612710830492506004015b60648310611617576064830492506002015b600a831061056d5760010192915050565b60006001611635846109e8565b61163f9190611f28565b600083815260076020526040902054909150808214611692576001600160a01b03841660009081526006602090815260408083208584528252808320548484528184208190558352600790915290208190555b5060009182526007602090815260408084208490556001600160a01b039094168352600681528383209183525290812055565b6008546000906116d790600190611f28565b600083815260096020526040812054600880549394509092849081106116ff576116ff611fed565b90600052602060002001549050806008838154811061172057611720611fed565b600091825260208083209091019290925582815260099091526040808220849055858252812055600880548061175857611758611fd7565b6001900381819060005260206000200160009055905550505050565b600061177f836109e8565b6001600160a01b039093166000908152600660209081526040808320868452825280832085905593825260079052919091209190915550565b6001600160a01b03821661180e5760405162461bcd60e51b815260206004820181905260248201527f4552433732313a206d696e7420746f20746865207a65726f206164647265737360448201526064016106a1565b6000818152600260205260409020546001600160a01b0316156118735760405162461bcd60e51b815260206004820152601c60248201527f4552433732313a20746f6b656e20616c7265616479206d696e7465640000000060448201526064016106a1565b6118816000838360016112dc565b6000818152600260205260409020546001600160a01b0316156118e65760405162461bcd60e51b815260206004820152601c60248201527f4552433732313a20746f6b656e20616c7265616479206d696e7465640000000060448201526064016106a1565b6001600160a01b038216600081815260036020908152604080832080546001019055848352600290915280822080546001600160a01b0319168417905551839291907fddf252ad1be2c89b69c2b068fc378daa952ba7f163c4a11628f55a4df523b3ef908290a45050565b82805461195d90611f6b565b90600052602060002090601f01602090048101928261197f57600085556119c5565b82601f1061199857805160ff19168380011785556119c5565b828001600101855582156119c5579182015b828111156119c55782518255916020019190600101906119aa565b506119d19291506119d5565b5090565b5b808211156119d157600081556001016119d6565b600067ffffffffffffffff831115611a0457611a04612003565b611a17601f8401601f1916602001611ed5565b9050828152838383011115611a2b57600080fd5b828260208301376000602084830101529392505050565b80356001600160a01b0381168114611a5957600080fd5b919050565b600060208284031215611a7057600080fd5b610bb882611a42565b60008060408385031215611a8c57600080fd5b611a9583611a42565b9150611aa360208401611a42565b90509250929050565b600080600060608486031215611ac157600080fd5b611aca84611a42565b9250611ad860208501611a42565b9150604084013590509250925092565b60008060008060808587031215611afe57600080fd5b611b0785611a42565b9350611b1560208601611a42565b925060408501359150606085013567ffffffffffffffff811115611b3857600080fd5b8501601f81018713611b4957600080fd5b611b58878235602084016119ea565b91505092959194509250565b60008060408385031215611b7757600080fd5b611b8083611a42565b915060208301358015158114611b9557600080fd5b809150509250929050565b60008060408385031215611bb357600080fd5b611bbc83611a42565b946020939093013593505050565b60006020808385031215611bdd57600080fd5b823567ffffffffffffffff80821115611bf557600080fd5b818501915085601f830112611c0957600080fd5b813581811115611c1b57611c1b612003565b8060051b9150611c2c848301611ed5565b8181528481019084860184860187018a1015611c4757600080fd5b600095505b83861015611c6a578035835260019590950194918601918601611c4c565b5098975050505050505050565b600060208284031215611c8957600080fd5b8135610bb881612019565b600060208284031215611ca657600080fd5b8151610bb881612019565b600060208284031215611cc357600080fd5b813567ffffffffffffffff811115611cda57600080fd5b8201601f81018413611ceb57600080fd5b610de5848235602084016119ea565b600060208284031215611d0c57600080fd5b5035919050565b60008060408385031215611d2657600080fd5b82359150611aa360208401611a42565b60008151808452611d4e816020860160208601611f3f565b601f01601f19169290920160200192915050565b60008351611d74818460208801611f3f565b835190830190611d88818360208801611f3f565b64173539b7b760d91b9101908152600501949350505050565b6001600160a01b0385811682528416602082015260408101839052608060608201819052600090611dd490830184611d36565b9695505050505050565b602081526000610bb86020830184611d36565b6020808252602d908201527f4552433732313a2063616c6c6572206973206e6f7420746f6b656e206f776e6560408201526c1c881bdc88185c1c1c9bdd9959609a1b606082015260800190565b60208082526032908201527f4552433732313a207472616e7366657220746f206e6f6e20455243373231526560408201527131b2b4bb32b91034b6b83632b6b2b73a32b960711b606082015260800190565b60208082526025908201527f4552433732313a207472616e736665722066726f6d20696e636f72726563742060408201526437bbb732b960d91b606082015260800190565b604051601f8201601f1916810167ffffffffffffffff81118282101715611efe57611efe612003565b604052919050565b600082611f2357634e487b7160e01b600052601260045260246000fd5b500490565b600082821015611f3a57611f3a611fc1565b500390565b60005b83811015611f5a578181015183820152602001611f42565b83811115610b0c5750506000910152565b600181811c90821680611f7f57607f821691505b60208210811415611fa057634e487b7160e01b600052602260045260246000fd5b50919050565b6000600019821415611fba57611fba611fc1565b5060010190565b634e487b7160e01b600052601160045260246000fd5b634e487b7160e01b600052603160045260246000fd5b634e487b7160e01b600052603260045260246000fd5b634e487b7160e01b600052604160045260246000fd5b6001600160e01b03198116811461084a57600080fdfea26469706673582212200fc23067b24e9950eb61d78fda5d5f13b9350302887084b1edc4c06e34ece18464736f6c63430008070033",
    "linkReferences": {}
  },
  "methodIdentifiers": {
    "MAX_PER_MINT()": "09d42b30",
    "MAX_SUPPLY()": "32cb6b0c",
    "PRICE()": "8d859f3e",
    "approve(address,uint256)": "095ea7b3",
    "balanceOf(address)": "70a08231",
    "can_mint()": "5c60596c",
    "getApproved(uint256)": "081812fc",
    "getBaseURI()": "714c5398",
    "isApprovedForAll(address,address)": "e985e9c5",
    "mintTo(uint256,address)": "b723b34e",
    "name()": "06fdde03",
    "owner()": "8da5cb5b",
    "ownerOf(uint256)": "6352211e",
    "renounceOwnership()": "715018a6",
    "safeTransferFrom(address,address,uint256)": "42842e0e",
    "safeTransferFrom(address,address,uint256,bytes)": "b88d4fde",
    "setApprovalForAll(address,bool)": "a22cb465",
    "setBaseURI(string)": "55f804b3",
    "supportsInterface(bytes4)": "01ffc9a7",
    "symbol()": "95d89b41",
    "toggleMint()": "d3dd5fe0",
    "tokenByIndex(uint256)": "4f6ccce7",
    "tokenOfOwnerByIndex(address,uint256)": "2f745c59",
    "tokenURI(uint256)": "c87b56dd",
    "totalSupply()": "18160ddd",
    "transferFrom(address,address,uint256)": "23b872dd",
    "transferOwnership(address)": "f2fde38b",
    "updateParams(uint256[])": "3f0e636b",
    "withdraw()": "3ccfd60b"
  },
  "id": 29
}