{
  "abi": [
    {
      "inputs": [
        {
          "internalType": "string",
          "name": "_name",
          "type": "string"
        },
        {
          "internalType": "string",
          "name": "_symbol",
          "type": "string"
        },
        {
          "internalType": "uint256",
          "name": "_price",
          "type": "uint256"
        },
        {
          "internalType": "uint256",
          "name": "_maxSupply",
          "type": "uint256"
        },
        {
          "internalType": "uint256",
          "name": "_maxPerMint",
          "type": "uint256"
        },
        {
          "internalType": "address",
          "name": "artist",
          "type": "address"
        },
        {
          "internalType": "address",
          "name": "_attestationContract",
          "type": "address"
        },
        {
          "internalType": "string",
          "name": "_baseuri",
          "type": "string"
        }
      ],
      "stateMutability": "nonpayable",
      "type": "constructor"
    },
    {
      "anonymous": false,
      "inputs": [
        {
          "indexed": true,
          "internalType": "address",
          "name": "owner",
          "type": "address"
        },
        {
          "indexed": true,
          "internalType": "address",
          "name": "approved",
          "type": "address"
        },
        {
          "indexed": true,
          "internalType": "uint256",
          "name": "tokenId",
          "type": "uint256"
        }
      ],
      "name": "Approval",
      "type": "event"
    },
    {
      "anonymous": false,
      "inputs": [
        {
          "indexed": true,
          "internalType": "address",
          "name": "owner",
          "type": "address"
        },
        {
          "indexed": true,
          "internalType": "address",
          "name": "operator",
          "type": "address"
        },
        {
          "indexed": false,
          "internalType": "bool",
          "name": "approved",
          "type": "bool"
        }
      ],
      "name": "ApprovalForAll",
      "type": "event"
    },
    {
      "anonymous": false,
      "inputs": [
        {
          "indexed": true,
          "internalType": "address",
          "name": "previousOwner",
          "type": "address"
        },
        {
          "indexed": true,
          "internalType": "address",
          "name": "newOwner",
          "type": "address"
        }
      ],
      "name": "OwnershipTransferred",
      "type": "event"
    },
    {
      "anonymous": false,
      "inputs": [
        {
          "indexed": true,
          "internalType": "address",
          "name": "from",
          "type": "address"
        },
        {
          "indexed": true,
          "internalType": "address",
          "name": "to",
          "type": "address"
        },
        {
          "indexed": true,
          "internalType": "uint256",
          "name": "tokenId",
          "type": "uint256"
        }
      ],
      "name": "Transfer",
      "type": "event"
    },
    {
      "stateMutability": "payable",
      "type": "fallback"
    },
    {
      "inputs": [],
      "name": "MAX_PER_MINT",
      "outputs": [
        {
          "internalType": "uint256",
          "name": "",
          "type": "uint256"
        }
      ],
      "stateMutability": "view",
      "type": "function"
    },
    {
      "inputs": [],
      "name": "MAX_SUPPLY",
      "outputs": [
        {
          "internalType": "uint256",
          "name": "",
          "type": "uint256"
        }
      ],
      "stateMutability": "view",
      "type": "function"
    },
    {
      "inputs": [],
      "name": "PRICE",
      "outputs": [
        {
          "internalType": "uint256",
          "name": "",
          "type": "uint256"
        }
      ],
      "stateMutability": "view",
      "type": "function"
    },
    {
      "inputs": [
        {
          "internalType": "address",
          "name": "to",
          "type": "address"
        },
        {
          "internalType": "uint256",
          "name": "tokenId",
          "type": "uint256"
        }
      ],
      "name": "approve",
      "outputs": [],
      "stateMutability": "nonpayable",
      "type": "function"
    },
    {
      "inputs": [],
      "name": "attestationContract",
      "outputs": [
        {
          "internalType": "address",
          "name": "",
          "type": "address"
        }
      ],
      "stateMutability": "view",
      "type": "function"
    },
    {
      "inputs": [
        {
          "internalType": "address",
          "name": "owner",
          "type": "address"
        }
      ],
      "name": "balanceOf",
      "outputs": [
        {
          "internalType": "uint256",
          "name": "",
          "type": "uint256"
        }
      ],
      "stateMutability": "view",
      "type": "function"
    },
    {
      "inputs": [],
      "name": "can_mint",
      "outputs": [
        {
          "internalType": "bool",
          "name": "",
          "type": "bool"
        }
      ],
      "stateMutability": "view",
      "type": "function"
    },
    {
      "inputs": [
        {
          "internalType": "uint256",
          "name": "tokenId",
          "type": "uint256"
        }
      ],
      "name": "getApproved",
      "outputs": [
        {
          "internalType": "address",
          "name": "",
          "type": "address"
        }
      ],
      "stateMutability": "view",
      "type": "function"
    },
    {
      "inputs": [],
      "name": "getBaseURI",
      "outputs": [
        {
          "internalType": "string",
          "name": "",
          "type": "string"
        }
      ],
      "stateMutability": "view",
      "type": "function"
    },
    {
      "inputs": [
        {
          "internalType": "address",
          "name": "owner",
          "type": "address"
        },
        {
          "internalType": "address",
          "name": "operator",
          "type": "address"
        }
      ],
      "name": "isApprovedForAll",
      "outputs": [
        {
          "internalType": "bool",
          "name": "",
          "type": "bool"
        }
      ],
      "stateMutability": "view",
      "type": "function"
    },
    {
      "inputs": [
        {
          "internalType": "address",
          "name": "addr",
          "type": "address"
        },
        {
          "internalType": "bytes32",
          "name": "attestationUid",
          "type": "bytes32"
        }
      ],
      "name": "mintTo",
      "outputs": [],
      "stateMutability": "payable",
      "type": "function"
    },
    {
      "inputs": [],
      "name": "name",
      "outputs": [
        {
          "internalType": "string",
          "name": "",
          "type": "string"
        }
      ],
      "stateMutability": "view",
      "type": "function"
    },
    {
      "inputs": [],
      "name": "owner",
      "outputs": [
        {
          "internalType": "address",
          "name": "",
          "type": "address"
        }
      ],
      "stateMutability": "view",
      "type": "function"
    },
    {
      "inputs": [
        {
          "internalType": "uint256",
          "name": "tokenId",
          "type": "uint256"
        }
      ],
      "name": "ownerOf",
      "outputs": [
        {
          "internalType": "address",
          "name": "",
          "type": "address"
        }
      ],
      "stateMutability": "view",
      "type": "function"
    },
    {
      "inputs": [],
      "name": "renounceOwnership",
      "outputs": [],
      "stateMutability": "nonpayable",
      "type": "function"
    },
    {
      "inputs": [
        {
          "internalType": "address",
          "name": "from",
          "type": "address"
        },
        {
          "internalType": "address",
          "name": "to",
          "type": "address"
        },
        {
          "internalType": "uint256",
          "name": "tokenId",
          "type": "uint256"
        }
      ],
      "name": "safeTransferFrom",
      "outputs": [],
      "stateMutability": "nonpayable",
      "type": "function"
    },
    {
      "inputs": [
        {
          "internalType": "address",
          "name": "from",
          "type": "address"
        },
        {
          "internalType": "address",
          "name": "to",
          "type": "address"
        },
        {
          "internalType": "uint256",
          "name": "tokenId",
          "type": "uint256"
        },
        {
          "internalType": "bytes",
          "name": "data",
          "type": "bytes"
        }
      ],
      "name": "safeTransferFrom",
      "outputs": [],
      "stateMutability": "nonpayable",
      "type": "function"
    },
    {
      "inputs": [
        {
          "internalType": "address",
          "name": "operator",
          "type": "address"
        },
        {
          "internalType": "bool",
          "name": "approved",
          "type": "bool"
        }
      ],
      "name": "setApprovalForAll",
      "outputs": [],
      "stateMutability": "nonpayable",
      "type": "function"
    },
    {
      "inputs": [
        {
          "internalType": "string",
          "name": "baseURI",
          "type": "string"
        }
      ],
      "name": "setBaseURI",
      "outputs": [],
      "stateMutability": "nonpayable",
      "type": "function"
    },
    {
      "inputs": [
        {
          "internalType": "bytes4",
          "name": "interfaceId",
          "type": "bytes4"
        }
      ],
      "name": "supportsInterface",
      "outputs": [
        {
          "internalType": "bool",
          "name": "",
          "type": "bool"
        }
      ],
      "stateMutability": "view",
      "type": "function"
    },
    {
      "inputs": [],
      "name": "symbol",
      "outputs": [
        {
          "internalType": "string",
          "name": "",
          "type": "string"
        }
      ],
      "stateMutability": "view",
      "type": "function"
    },
    {
      "inputs": [],
      "name": "toggleMint",
      "outputs": [],
      "stateMutability": "nonpayable",
      "type": "function"
    },
    {
      "inputs": [
        {
          "internalType": "uint256",
          "name": "tokenId",
          "type": "uint256"
        }
      ],
      "name": "tokenURI",
      "outputs": [
        {
          "internalType": "string",
          "name": "",
          "type": "string"
        }
      ],
      "stateMutability": "view",
      "type": "function"
    },
    {
      "inputs": [],
      "name": "totalSupply",
      "outputs": [
        {
          "internalType": "uint256",
          "name": "",
          "type": "uint256"
        }
      ],
      "stateMutability": "view",
      "type": "function"
    },
    {
      "inputs": [
        {
          "internalType": "address",
          "name": "from",
          "type": "address"
        },
        {
          "internalType": "address",
          "name": "to",
          "type": "address"
        },
        {
          "internalType": "uint256",
          "name": "tokenId",
          "type": "uint256"
        }
      ],
      "name": "transferFrom",
      "outputs": [],
      "stateMutability": "nonpayable",
      "type": "function"
    },
    {
      "inputs": [
        {
          "internalType": "address",
          "name": "newOwner",
          "type": "address"
        }
      ],
      "name": "transferOwnership",
      "outputs": [],
      "stateMutability": "nonpayable",
      "type": "function"
    },
    {
      "inputs": [
        {
          "internalType": "uint256[]",
          "name": "numericParams",
          "type": "uint256[]"
        }
      ],
      "name": "updateParams",
      "outputs": [],
      "stateMutability": "nonpayable",
      "type": "function"
    },
    {
      "inputs": [],
      "name": "withdraw",
      "outputs": [],
      "stateMutability": "nonpayable",
      "type": "function"
    },
    {
      "stateMutability": "payable",
      "type": "receive"
    }
  ],
  "bytecode": {
    "object": "0x60806040523480156200001157600080fd5b5060405162002348380380620023488339810160408190526200003491620002e0565b8751889088906200004d90600090602085019062000166565b5080516200006390600190602084019062000166565b505050620000806200007a6200011060201b60201c565b62000114565b600786905560088590556009849055600d80546001600160a01b0319166001600160a01b038516179055620000bd6006546001600160a01b031690565b600e80546001600160a01b03199081166001600160a01b0393841617909155600f805490911691841691909117905580516200010190600b90602084019062000166565b50505050505050505062000407565b3390565b600680546001600160a01b038381166001600160a01b0319831681179093556040519116919082907f8be0079c531659141344cd1fd0a4f28419497f9722a3daafe3b4186f6b6457e090600090a35050565b8280546200017490620003b4565b90600052602060002090601f016020900481019282620001985760008555620001e3565b82601f10620001b357805160ff1916838001178555620001e3565b82800160010185558215620001e3579182015b82811115620001e3578251825591602001919060010190620001c6565b50620001f1929150620001f5565b5090565b5b80821115620001f15760008155600101620001f6565b80516001600160a01b03811681146200022457600080fd5b919050565b600082601f8301126200023b57600080fd5b81516001600160401b0380821115620002585762000258620003f1565b604051601f8301601f19908116603f01168101908282118183101715620002835762000283620003f1565b81604052838152602092508683858801011115620002a057600080fd5b600091505b83821015620002c45785820183015181830184015290820190620002a5565b83821115620002d65760008385830101525b9695505050505050565b600080600080600080600080610100898b031215620002fe57600080fd5b88516001600160401b03808211156200031657600080fd5b620003248c838d0162000229565b995060208b01519150808211156200033b57600080fd5b620003498c838d0162000229565b985060408b0151975060608b0151965060808b015195506200036e60a08c016200020c565b94506200037e60c08c016200020c565b935060e08b01519150808211156200039557600080fd5b50620003a48b828c0162000229565b9150509295985092959890939650565b600181811c90821680620003c957607f821691505b60208210811415620003eb57634e487b7160e01b600052602260045260246000fd5b50919050565b634e487b7160e01b600052604160045260246000fd5b611f3180620004176000396000f3fe6080604052600436106101a35760003560e01c806370a08231116100e0578063a22cb46511610084578063c87b56dd11610061578063c87b56dd14610480578063d3dd5fe0146104a0578063e985e9c5146104b5578063f2fde38b146104fe57005b8063a22cb4651461042d578063adf288df1461044d578063b88d4fde1461046057005b806387be6d4e116100bd57806387be6d4e146103c45780638d859f3e146103e45780638da5cb5b146103fa57806395d89b411461041857005b806370a082311461037a578063714c53981461039a578063715018a6146103af57005b806332cb6b0c1161014757806342842e0e1161012457806342842e0e1461030057806355f804b3146103205780635c60596c146103405780636352211e1461035a57005b806332cb6b0c146102b55780633ccfd60b146102cb5780633f0e636b146102e057005b8063095ea7b311610180578063095ea7b31461023b57806309d42b301461025b57806318160ddd1461027f57806323b872dd1461029557005b806301ffc9a7146101ac57806306fdde03146101e1578063081812fc1461020357005b366101aa57005b005b3480156101b857600080fd5b506101cc6101c7366004611a2f565b61051e565b60405190151581526020015b60405180910390f35b3480156101ed57600080fd5b506101f6610570565b6040516101d89190611c6a565b34801561020f57600080fd5b5061022361021e366004611ba9565b610602565b6040516001600160a01b0390911681526020016101d8565b34801561024757600080fd5b506101aa610256366004611956565b610629565b34801561026757600080fd5b5061027160095481565b6040519081526020016101d8565b34801561028b57600080fd5b50610271600c5481565b3480156102a157600080fd5b506101aa6102b0366004611867565b610744565b3480156102c157600080fd5b5061027160085481565b3480156102d757600080fd5b506101aa610775565b3480156102ec57600080fd5b506101aa6102fb366004611982565b6107b4565b34801561030c57600080fd5b506101aa61031b366004611867565b610822565b34801561032c57600080fd5b506101aa61033b366004611a69565b61083d565b34801561034c57600080fd5b50600a546101cc9060ff1681565b34801561036657600080fd5b50610223610375366004611ba9565b61085c565b34801561038657600080fd5b50610271610395366004611811565b6108bc565b3480156103a657600080fd5b506101f6610942565b3480156103bb57600080fd5b506101aa610951565b3480156103d057600080fd5b50600f54610223906001600160a01b031681565b3480156103f057600080fd5b5061027160075481565b34801561040657600080fd5b506006546001600160a01b0316610223565b34801561042457600080fd5b506101f6610965565b34801561043957600080fd5b506101aa610448366004611928565b610974565b6101aa61045b366004611956565b61097f565b34801561046c57600080fd5b506101aa61047b3660046118a8565b610adf565b34801561048c57600080fd5b506101f661049b366004611ba9565b610b17565b3480156104ac57600080fd5b506101aa610bc4565b3480156104c157600080fd5b506101cc6104d036600461182e565b6001600160a01b03918216600090815260056020908152604080832093909416825291909152205460ff1690565b34801561050a57600080fd5b506101aa610519366004611811565b610be0565b60006001600160e01b031982166380ac58cd60e01b148061054f57506001600160e01b03198216635b5e139f60e01b145b8061056a57506301ffc9a760e01b6001600160e01b03198316145b92915050565b60606000805461057f90611e32565b80601f01602080910402602001604051908101604052809291908181526020018280546105ab90611e32565b80156105f85780601f106105cd576101008083540402835291602001916105f8565b820191906000526020600020905b8154815290600101906020018083116105db57829003601f168201915b5050505050905090565b600061060d82610c56565b506000908152600460205260409020546001600160a01b031690565b60006106348261085c565b9050806001600160a01b0316836001600160a01b031614156106a75760405162461bcd60e51b815260206004820152602160248201527f4552433732313a20617070726f76616c20746f2063757272656e74206f776e656044820152603960f91b60648201526084015b60405180910390fd5b336001600160a01b03821614806106c357506106c381336104d0565b6107355760405162461bcd60e51b815260206004820152603d60248201527f4552433732313a20617070726f76652063616c6c6572206973206e6f7420746f60448201527f6b656e206f776e6572206f7220617070726f76656420666f7220616c6c000000606482015260840161069e565b61073f8383610cb5565b505050565b61074e3382610d23565b61076a5760405162461bcd60e51b815260040161069e90611c7d565b61073f838383610da2565b6000610782600247611de4565b600e5490915061079b906001600160a01b031682610f13565b600d546107b1906001600160a01b031682610f13565b50565b6107bc61102c565b806000815181106107cf576107cf611e96565b6020026020010151600781905550806001815181106107f0576107f0611e96565b60200260200101516008819055508060028151811061081157610811611e96565b602002602001015160098190555050565b61073f83838360405180602001604052806000815250610adf565b61084561102c565b805161085890600b9060208401906116c2565b5050565b6000818152600260205260408120546001600160a01b03168061056a5760405162461bcd60e51b8152602060048201526018602482015277115490cdcc8c4e881a5b9d985b1a59081d1bdad95b88125160421b604482015260640161069e565b60006001600160a01b0382166109265760405162461bcd60e51b815260206004820152602960248201527f4552433732313a2061646472657373207a65726f206973206e6f7420612076616044820152683634b21037bbb732b960b91b606482015260840161069e565b506001600160a01b031660009081526003602052604090205490565b6060600b805461057f90611e32565b61095961102c565b6109636000611086565b565b60606001805461057f90611e32565b6108583383836110d8565b600f546040516328c44a9960e21b8152600481018390526000916001600160a01b03169063a3112a649060240160006040518083038186803b1580156109c457600080fd5b505afa1580156109d8573d6000803e3d6000fd5b505050506040513d6000823e601f3d908101601f19168201604052610a009190810190611ab2565b9050806080015167ffffffffffffffff16600014610a565760405162461bcd60e51b8152602060048201526013602482015272105d1d195cdd185d1a5bdb881c995d9bdad959606a1b604482015260640161069e565b606081015167ffffffffffffffff161580610a7e575042816060015167ffffffffffffffff16115b610ac05760405162461bcd60e51b8152602060048201526013602482015272105d1d195cdd185d1a5bdb88195e1c1a5c9959606a1b604482015260640161069e565b600c805461073f918591906000610ad683611e6d565b919050556111a7565b610ae93383610d23565b610b055760405162461bcd60e51b815260040161069e90611c7d565b610b11848484846111c1565b50505050565b6000818152600260205260409020546060906001600160a01b0316610b685760405162461bcd60e51b81526020600482015260076024820152661253959053125160ca1b604482015260640161069e565b6000610b72610942565b90506000815111610b925760405180602001604052806000815250610bbd565b80610b9c846111f4565b604051602001610bad929190611bee565b6040516020818303038152906040525b9392505050565b610bcc61102c565b600a805460ff19811660ff90911615179055565b610be861102c565b6001600160a01b038116610c4d5760405162461bcd60e51b815260206004820152602660248201527f4f776e61626c653a206e6577206f776e657220697320746865207a65726f206160448201526564647265737360d01b606482015260840161069e565b6107b181611086565b6000818152600260205260409020546001600160a01b03166107b15760405162461bcd60e51b8152602060048201526018602482015277115490cdcc8c4e881a5b9d985b1a59081d1bdad95b88125160421b604482015260640161069e565b600081815260046020526040902080546001600160a01b0319166001600160a01b0384169081179091558190610cea8261085c565b6001600160a01b03167f8c5be1e5ebec7d5bd14f71427d1e84f3dd0314c0f7b2291e5b200ac8c7c3b92560405160405180910390a45050565b600080610d2f8361085c565b9050806001600160a01b0316846001600160a01b03161480610d7657506001600160a01b0380821660009081526005602090815260408083209388168352929052205460ff165b80610d9a5750836001600160a01b0316610d8f84610602565b6001600160a01b0316145b949350505050565b826001600160a01b0316610db58261085c565b6001600160a01b031614610ddb5760405162461bcd60e51b815260040161069e90611d1c565b6001600160a01b038216610e3d5760405162461bcd60e51b8152602060048201526024808201527f4552433732313a207472616e7366657220746f20746865207a65726f206164646044820152637265737360e01b606482015260840161069e565b610e4a8383836001611291565b826001600160a01b0316610e5d8261085c565b6001600160a01b031614610e835760405162461bcd60e51b815260040161069e90611d1c565b600081815260046020908152604080832080546001600160a01b03199081169091556001600160a01b0387811680865260038552838620805460001901905590871680865283862080546001019055868652600290945282852080549092168417909155905184937fddf252ad1be2c89b69c2b068fc378daa952ba7f163c4a11628f55a4df523b3ef91a4505050565b80471015610f635760405162461bcd60e51b815260206004820152601d60248201527f416464726573733a20696e73756666696369656e742062616c616e6365000000604482015260640161069e565b6000826001600160a01b03168260405160006040518083038185875af1925050503d8060008114610fb0576040519150601f19603f3d011682016040523d82523d6000602084013e610fb5565b606091505b505090508061073f5760405162461bcd60e51b815260206004820152603a60248201527f416464726573733a20756e61626c6520746f2073656e642076616c75652c207260448201527f6563697069656e74206d61792068617665207265766572746564000000000000606482015260840161069e565b6006546001600160a01b031633146109635760405162461bcd60e51b815260206004820181905260248201527f4f776e61626c653a2063616c6c6572206973206e6f7420746865206f776e6572604482015260640161069e565b600680546001600160a01b038381166001600160a01b0319831681179093556040519116919082907f8be0079c531659141344cd1fd0a4f28419497f9722a3daafe3b4186f6b6457e090600090a35050565b816001600160a01b0316836001600160a01b0316141561113a5760405162461bcd60e51b815260206004820152601960248201527f4552433732313a20617070726f766520746f2063616c6c657200000000000000604482015260640161069e565b6001600160a01b03838116600081815260056020908152604080832094871680845294825291829020805460ff191686151590811790915591519182527f17307eab39ab6107e8899845ad3d59bd9653f200f220920489ca2b5937696c31910160405180910390a3505050565b610858828260405180602001604052806000815250611311565b6111cc848484610da2565b6111d884848484611344565b610b115760405162461bcd60e51b815260040161069e90611cca565b6060600061120183611451565b600101905060008167ffffffffffffffff81111561122157611221611eac565b6040519080825280601f01601f19166020018201604052801561124b576020820181803683370190505b5090508181016020015b600019016f181899199a1a9b1b9c1cb0b131b232b360811b600a86061a8153600a850494508461128457611289565b611255565b509392505050565b6001600160a01b038416158015906112b157506001600160a01b03831615155b15610b115760405162461bcd60e51b815260206004820152602a60248201527f536f756c20626f756e6420746f6b656e2063616e6e6f74206265207472616e7360448201526919995c9c9959081bdd5d60b21b606482015260840161069e565b61131b8383611529565b6113286000848484611344565b61073f5760405162461bcd60e51b815260040161069e90611cca565b60006001600160a01b0384163b1561144657604051630a85bd0160e11b81526001600160a01b0385169063150b7a0290611388903390899088908890600401611c2d565b602060405180830381600087803b1580156113a257600080fd5b505af19250505080156113d2575060408051601f3d908101601f191682019092526113cf91810190611a4c565b60015b61142c573d808015611400576040519150601f19603f3d011682016040523d82523d6000602084013e611405565b606091505b5080516114245760405162461bcd60e51b815260040161069e90611cca565b805181602001fd5b6001600160e01b031916630a85bd0160e11b149050610d9a565b506001949350505050565b60008072184f03e93ff9f4daa797ed6e38ed64bf6a1f0160401b83106114905772184f03e93ff9f4daa797ed6e38ed64bf6a1f0160401b830492506040015b6d04ee2d6d415b85acef810000000083106114bc576d04ee2d6d415b85acef8100000000830492506020015b662386f26fc1000083106114da57662386f26fc10000830492506010015b6305f5e10083106114f2576305f5e100830492506008015b612710831061150657612710830492506004015b60648310611518576064830492506002015b600a831061056a5760010192915050565b6001600160a01b03821661157f5760405162461bcd60e51b815260206004820181905260248201527f4552433732313a206d696e7420746f20746865207a65726f2061646472657373604482015260640161069e565b6000818152600260205260409020546001600160a01b0316156115e45760405162461bcd60e51b815260206004820152601c60248201527f4552433732313a20746f6b656e20616c7265616479206d696e74656400000000604482015260640161069e565b6115f2600083836001611291565b6000818152600260205260409020546001600160a01b0316156116575760405162461bcd60e51b815260206004820152601c60248201527f4552433732313a20746f6b656e20616c7265616479206d696e74656400000000604482015260640161069e565b6001600160a01b038216600081815260036020908152604080832080546001019055848352600290915280822080546001600160a01b0319168417905551839291907fddf252ad1be2c89b69c2b068fc378daa952ba7f163c4a11628f55a4df523b3ef908290a45050565b8280546116ce90611e32565b90600052602060002090601f0160209004810192826116f05760008555611736565b82601f1061170957805160ff1916838001178555611736565b82800160010185558215611736579182015b8281111561173657825182559160200191906001019061171b565b50611742929150611746565b5090565b5b808211156117425760008155600101611747565b600061176e61176984611dbc565b611d8b565b905082815283838301111561178257600080fd5b828260208301376000602084830101529392505050565b80516117a481611ec2565b919050565b80516117a481611ed7565b600082601f8301126117c557600080fd5b81516117d361176982611dbc565b8181528460208386010111156117e857600080fd5b610d9a826020830160208701611e06565b805167ffffffffffffffff811681146117a457600080fd5b60006020828403121561182357600080fd5b8135610bbd81611ec2565b6000806040838503121561184157600080fd5b823561184c81611ec2565b9150602083013561185c81611ec2565b809150509250929050565b60008060006060848603121561187c57600080fd5b833561188781611ec2565b9250602084013561189781611ec2565b929592945050506040919091013590565b600080600080608085870312156118be57600080fd5b84356118c981611ec2565b935060208501356118d981611ec2565b925060408501359150606085013567ffffffffffffffff8111156118fc57600080fd5b8501601f8101871361190d57600080fd5b61191c8782356020840161175b565b91505092959194509250565b6000806040838503121561193b57600080fd5b823561194681611ec2565b9150602083013561185c81611ed7565b6000806040838503121561196957600080fd5b823561197481611ec2565b946020939093013593505050565b6000602080838503121561199557600080fd5b823567ffffffffffffffff808211156119ad57600080fd5b818501915085601f8301126119c157600080fd5b8135818111156119d3576119d3611eac565b8060051b91506119e4848301611d8b565b8181528481019084860184860187018a10156119ff57600080fd5b600095505b83861015611a22578035835260019590950194918601918601611a04565b5098975050505050505050565b600060208284031215611a4157600080fd5b8135610bbd81611ee5565b600060208284031215611a5e57600080fd5b8151610bbd81611ee5565b600060208284031215611a7b57600080fd5b813567ffffffffffffffff811115611a9257600080fd5b8201601f81018413611aa357600080fd5b610d9a8482356020840161175b565b600060208284031215611ac457600080fd5b815167ffffffffffffffff80821115611adc57600080fd5b908301906101408286031215611af157600080fd5b611af9611d61565b8251815260208301516020820152611b13604084016117f9565b6040820152611b24606084016117f9565b6060820152611b35608084016117f9565b608082015260a083015160a0820152611b5060c08401611799565b60c0820152611b6160e08401611799565b60e0820152610100611b748185016117a9565b908201526101208381015183811115611b8c57600080fd5b611b98888287016117b4565b918301919091525095945050505050565b600060208284031215611bbb57600080fd5b5035919050565b60008151808452611bda816020860160208601611e06565b601f01601f19169290920160200192915050565b60008351611c00818460208801611e06565b835190830190611c14818360208801611e06565b64173539b7b760d91b9101908152600501949350505050565b6001600160a01b0385811682528416602082015260408101839052608060608201819052600090611c6090830184611bc2565b9695505050505050565b602081526000610bbd6020830184611bc2565b6020808252602d908201527f4552433732313a2063616c6c6572206973206e6f7420746f6b656e206f776e6560408201526c1c881bdc88185c1c1c9bdd9959609a1b606082015260800190565b60208082526032908201527f4552433732313a207472616e7366657220746f206e6f6e20455243373231526560408201527131b2b4bb32b91034b6b83632b6b2b73a32b960711b606082015260800190565b60208082526025908201527f4552433732313a207472616e736665722066726f6d20696e636f72726563742060408201526437bbb732b960d91b606082015260800190565b604051610140810167ffffffffffffffff81118282101715611d8557611d85611eac565b60405290565b604051601f8201601f1916810167ffffffffffffffff81118282101715611db457611db4611eac565b604052919050565b600067ffffffffffffffff821115611dd657611dd6611eac565b50601f01601f191660200190565b600082611e0157634e487b7160e01b600052601260045260246000fd5b500490565b60005b83811015611e21578181015183820152602001611e09565b83811115610b115750506000910152565b600181811c90821680611e4657607f821691505b60208210811415611e6757634e487b7160e01b600052602260045260246000fd5b50919050565b6000600019821415611e8f57634e487b7160e01b600052601160045260246000fd5b5060010190565b634e487b7160e01b600052603260045260246000fd5b634e487b7160e01b600052604160045260246000fd5b6001600160a01b03811681146107b157600080fd5b80151581146107b157600080fd5b6001600160e01b0319811681146107b157600080fdfea2646970667358221220007bc6ccabf524f4936fcbce1d4a756c40d25dbbd2b21479f24cebae9bec86fe64736f6c63430008070033",
    "linkReferences": {}
  },
  "methodIdentifiers": {
    "MAX_PER_MINT()": "09d42b30",
    "MAX_SUPPLY()": "32cb6b0c",
    "PRICE()": "8d859f3e",
    "approve(address,uint256)": "095ea7b3",
    "attestationContract()": "87be6d4e",
    "balanceOf(address)": "70a08231",
    "can_mint()": "5c60596c",
    "getApproved(uint256)": "081812fc",
    "getBaseURI()": "714c5398",
    "isApprovedForAll(address,address)": "e985e9c5",
    "mintTo(address,bytes32)": "adf288df",
    "name()": "06fdde03",
    "owner()": "8da5cb5b",
    "ownerOf(uint256)": "6352211e",
    "renounceOwnership()": "715018a6",
    "safeTransferFrom(address,address,uint256)": "42842e0e",
    "safeTransferFrom(address,address,uint256,bytes)": "b88d4fde",
    "setApprovalForAll(address,bool)": "a22cb465",
    "setBaseURI(string)": "55f804b3",
    "supportsInterface(bytes4)": "01ffc9a7",
    "symbol()": "95d89b41",
    "toggleMint()": "d3dd5fe0",
    "tokenURI(uint256)": "c87b56dd",
    "totalSupply()": "18160ddd",
    "transferFrom(address,address,uint256)": "23b872dd",
    "transferOwnership(address)": "f2fde38b",
    "updateParams(uint256[])": "3f0e636b",
    "withdraw()": "3ccfd60b"
  },
  "id": 31
}