{
  "abi": [
    {
      "inputs": [
        {
          "internalType": "string",
          "name": "_name",
          "type": "string"
        },
        {
          "internalType": "string",
          "name": "_symbol",
          "type": "string"
        },
        {
          "internalType": "uint256",
          "name": "_price",
          "type": "uint256"
        },
        {
          "internalType": "uint256",
          "name": "_maxSupply",
          "type": "uint256"
        },
        {
          "internalType": "uint256",
          "name": "_maxPerMint",
          "type": "uint256"
        },
        {
          "internalType": "address",
          "name": "artist",
          "type": "address"
        },
        {
          "internalType": "address",
          "name": "_attestationContract",
          "type": "address"
        }
      ],
      "stateMutability": "nonpayable",
      "type": "constructor"
    },
    {
      "anonymous": false,
      "inputs": [
        {
          "indexed": true,
          "internalType": "address",
          "name": "owner",
          "type": "address"
        },
        {
          "indexed": true,
          "internalType": "address",
          "name": "approved",
          "type": "address"
        },
        {
          "indexed": true,
          "internalType": "uint256",
          "name": "tokenId",
          "type": "uint256"
        }
      ],
      "name": "Approval",
      "type": "event"
    },
    {
      "anonymous": false,
      "inputs": [
        {
          "indexed": true,
          "internalType": "address",
          "name": "owner",
          "type": "address"
        },
        {
          "indexed": true,
          "internalType": "address",
          "name": "operator",
          "type": "address"
        },
        {
          "indexed": false,
          "internalType": "bool",
          "name": "approved",
          "type": "bool"
        }
      ],
      "name": "ApprovalForAll",
      "type": "event"
    },
    {
      "anonymous": false,
      "inputs": [
        {
          "indexed": true,
          "internalType": "address",
          "name": "previousOwner",
          "type": "address"
        },
        {
          "indexed": true,
          "internalType": "address",
          "name": "newOwner",
          "type": "address"
        }
      ],
      "name": "OwnershipTransferred",
      "type": "event"
    },
    {
      "anonymous": false,
      "inputs": [
        {
          "indexed": true,
          "internalType": "address",
          "name": "from",
          "type": "address"
        },
        {
          "indexed": true,
          "internalType": "address",
          "name": "to",
          "type": "address"
        },
        {
          "indexed": true,
          "internalType": "uint256",
          "name": "tokenId",
          "type": "uint256"
        }
      ],
      "name": "Transfer",
      "type": "event"
    },
    {
      "stateMutability": "payable",
      "type": "fallback"
    },
    {
      "inputs": [],
      "name": "MAX_PER_MINT",
      "outputs": [
        {
          "internalType": "uint256",
          "name": "",
          "type": "uint256"
        }
      ],
      "stateMutability": "view",
      "type": "function"
    },
    {
      "inputs": [],
      "name": "MAX_SUPPLY",
      "outputs": [
        {
          "internalType": "uint256",
          "name": "",
          "type": "uint256"
        }
      ],
      "stateMutability": "view",
      "type": "function"
    },
    {
      "inputs": [],
      "name": "PRICE",
      "outputs": [
        {
          "internalType": "uint256",
          "name": "",
          "type": "uint256"
        }
      ],
      "stateMutability": "view",
      "type": "function"
    },
    {
      "inputs": [
        {
          "internalType": "address",
          "name": "to",
          "type": "address"
        },
        {
          "internalType": "uint256",
          "name": "tokenId",
          "type": "uint256"
        }
      ],
      "name": "approve",
      "outputs": [],
      "stateMutability": "nonpayable",
      "type": "function"
    },
    {
      "inputs": [],
      "name": "attestationContract",
      "outputs": [
        {
          "internalType": "address",
          "name": "",
          "type": "address"
        }
      ],
      "stateMutability": "view",
      "type": "function"
    },
    {
      "inputs": [
        {
          "internalType": "address",
          "name": "owner",
          "type": "address"
        }
      ],
      "name": "balanceOf",
      "outputs": [
        {
          "internalType": "uint256",
          "name": "",
          "type": "uint256"
        }
      ],
      "stateMutability": "view",
      "type": "function"
    },
    {
      "inputs": [],
      "name": "can_mint",
      "outputs": [
        {
          "internalType": "bool",
          "name": "",
          "type": "bool"
        }
      ],
      "stateMutability": "view",
      "type": "function"
    },
    {
      "inputs": [
        {
          "internalType": "uint256",
          "name": "tokenId",
          "type": "uint256"
        }
      ],
      "name": "getApproved",
      "outputs": [
        {
          "internalType": "address",
          "name": "",
          "type": "address"
        }
      ],
      "stateMutability": "view",
      "type": "function"
    },
    {
      "inputs": [],
      "name": "getBaseURI",
      "outputs": [
        {
          "internalType": "string",
          "name": "",
          "type": "string"
        }
      ],
      "stateMutability": "view",
      "type": "function"
    },
    {
      "inputs": [
        {
          "internalType": "address",
          "name": "owner",
          "type": "address"
        },
        {
          "internalType": "address",
          "name": "operator",
          "type": "address"
        }
      ],
      "name": "isApprovedForAll",
      "outputs": [
        {
          "internalType": "bool",
          "name": "",
          "type": "bool"
        }
      ],
      "stateMutability": "view",
      "type": "function"
    },
    {
      "inputs": [
        {
          "internalType": "uint256",
          "name": "num",
          "type": "uint256"
        },
        {
          "internalType": "address",
          "name": "addr",
          "type": "address"
        }
      ],
      "name": "mintTo",
      "outputs": [],
      "stateMutability": "payable",
      "type": "function"
    },
    {
      "inputs": [],
      "name": "name",
      "outputs": [
        {
          "internalType": "string",
          "name": "",
          "type": "string"
        }
      ],
      "stateMutability": "view",
      "type": "function"
    },
    {
      "inputs": [],
      "name": "owner",
      "outputs": [
        {
          "internalType": "address",
          "name": "",
          "type": "address"
        }
      ],
      "stateMutability": "view",
      "type": "function"
    },
    {
      "inputs": [
        {
          "internalType": "uint256",
          "name": "tokenId",
          "type": "uint256"
        }
      ],
      "name": "ownerOf",
      "outputs": [
        {
          "internalType": "address",
          "name": "",
          "type": "address"
        }
      ],
      "stateMutability": "view",
      "type": "function"
    },
    {
      "inputs": [],
      "name": "renounceOwnership",
      "outputs": [],
      "stateMutability": "nonpayable",
      "type": "function"
    },
    {
      "inputs": [
        {
          "internalType": "address",
          "name": "from",
          "type": "address"
        },
        {
          "internalType": "address",
          "name": "to",
          "type": "address"
        },
        {
          "internalType": "uint256",
          "name": "tokenId",
          "type": "uint256"
        }
      ],
      "name": "safeTransferFrom",
      "outputs": [],
      "stateMutability": "nonpayable",
      "type": "function"
    },
    {
      "inputs": [
        {
          "internalType": "address",
          "name": "from",
          "type": "address"
        },
        {
          "internalType": "address",
          "name": "to",
          "type": "address"
        },
        {
          "internalType": "uint256",
          "name": "tokenId",
          "type": "uint256"
        },
        {
          "internalType": "bytes",
          "name": "data",
          "type": "bytes"
        }
      ],
      "name": "safeTransferFrom",
      "outputs": [],
      "stateMutability": "nonpayable",
      "type": "function"
    },
    {
      "inputs": [
        {
          "internalType": "address",
          "name": "operator",
          "type": "address"
        },
        {
          "internalType": "bool",
          "name": "approved",
          "type": "bool"
        }
      ],
      "name": "setApprovalForAll",
      "outputs": [],
      "stateMutability": "nonpayable",
      "type": "function"
    },
    {
      "inputs": [
        {
          "internalType": "string",
          "name": "baseURI",
          "type": "string"
        }
      ],
      "name": "setBaseURI",
      "outputs": [],
      "stateMutability": "nonpayable",
      "type": "function"
    },
    {
      "inputs": [
        {
          "internalType": "bytes4",
          "name": "interfaceId",
          "type": "bytes4"
        }
      ],
      "name": "supportsInterface",
      "outputs": [
        {
          "internalType": "bool",
          "name": "",
          "type": "bool"
        }
      ],
      "stateMutability": "view",
      "type": "function"
    },
    {
      "inputs": [],
      "name": "symbol",
      "outputs": [
        {
          "internalType": "string",
          "name": "",
          "type": "string"
        }
      ],
      "stateMutability": "view",
      "type": "function"
    },
    {
      "inputs": [],
      "name": "toggleMint",
      "outputs": [],
      "stateMutability": "nonpayable",
      "type": "function"
    },
    {
      "inputs": [
        {
          "internalType": "uint256",
          "name": "index",
          "type": "uint256"
        }
      ],
      "name": "tokenByIndex",
      "outputs": [
        {
          "internalType": "uint256",
          "name": "",
          "type": "uint256"
        }
      ],
      "stateMutability": "view",
      "type": "function"
    },
    {
      "inputs": [
        {
          "internalType": "address",
          "name": "owner",
          "type": "address"
        },
        {
          "internalType": "uint256",
          "name": "index",
          "type": "uint256"
        }
      ],
      "name": "tokenOfOwnerByIndex",
      "outputs": [
        {
          "internalType": "uint256",
          "name": "",
          "type": "uint256"
        }
      ],
      "stateMutability": "view",
      "type": "function"
    },
    {
      "inputs": [
        {
          "internalType": "uint256",
          "name": "tokenId",
          "type": "uint256"
        }
      ],
      "name": "tokenURI",
      "outputs": [
        {
          "internalType": "string",
          "name": "",
          "type": "string"
        }
      ],
      "stateMutability": "view",
      "type": "function"
    },
    {
      "inputs": [],
      "name": "totalSupply",
      "outputs": [
        {
          "internalType": "uint256",
          "name": "",
          "type": "uint256"
        }
      ],
      "stateMutability": "view",
      "type": "function"
    },
    {
      "inputs": [
        {
          "internalType": "address",
          "name": "from",
          "type": "address"
        },
        {
          "internalType": "address",
          "name": "to",
          "type": "address"
        },
        {
          "internalType": "uint256",
          "name": "tokenId",
          "type": "uint256"
        }
      ],
      "name": "transferFrom",
      "outputs": [],
      "stateMutability": "nonpayable",
      "type": "function"
    },
    {
      "inputs": [
        {
          "internalType": "address",
          "name": "newOwner",
          "type": "address"
        }
      ],
      "name": "transferOwnership",
      "outputs": [],
      "stateMutability": "nonpayable",
      "type": "function"
    },
    {
      "inputs": [
        {
          "internalType": "uint256[]",
          "name": "numericParams",
          "type": "uint256[]"
        }
      ],
      "name": "updateParams",
      "outputs": [],
      "stateMutability": "nonpayable",
      "type": "function"
    },
    {
      "inputs": [],
      "name": "withdraw",
      "outputs": [],
      "stateMutability": "nonpayable",
      "type": "function"
    },
    {
      "stateMutability": "payable",
      "type": "receive"
    }
  ],
  "bytecode": {
    "object": "0x60806040523480156200001157600080fd5b5060405162002a9f38038062002a9f83398101604081905262000034916200088e565b8651879087906200004d90600090602085019062000714565b5080516200006390600190602084019062000714565b505050620000806200007a6200016f60201b60201c565b62000173565b600b859055600c849055600d839055601080546001600160a01b0319166001600160a01b038416179055620000bd600a546001600160a01b031690565b601180546001600160a01b03199081166001600160a01b03938416179091556012805490911691831691909117905560005b6005811015620001265760105462000111906001600160a01b031682620001c5565b806200011d8162000991565b915050620000ef565b5060055b600f81101562000161576011546200014c906001600160a01b031682620001c5565b80620001588162000991565b9150506200012a565b505050505050505062000a07565b3390565b600a80546001600160a01b038381166001600160a01b0319831681179093556040519116919082907f8be0079c531659141344cd1fd0a4f28419497f9722a3daafe3b4186f6b6457e090600090a35050565b6001600160a01b038216620002215760405162461bcd60e51b815260206004820181905260248201527f4552433732313a206d696e7420746f20746865207a65726f206164647265737360448201526064015b60405180910390fd5b6000818152600260205260409020546001600160a01b031615620002885760405162461bcd60e51b815260206004820152601c60248201527f4552433732313a20746f6b656e20616c7265616479206d696e74656400000000604482015260640162000218565b620002986000838360016200036a565b6000818152600260205260409020546001600160a01b031615620002ff5760405162461bcd60e51b815260206004820152601c60248201527f4552433732313a20746f6b656e20616c7265616479206d696e74656400000000604482015260640162000218565b6001600160a01b038216600081815260036020908152604080832080546001019055848352600290915280822080546001600160a01b0319168417905551839291907fddf252ad1be2c89b69c2b068fc378daa952ba7f163c4a11628f55a4df523b3ef908290a45050565b6200038384848484620004ce60201b62000b2f1760201c565b6001811115620003fc5760405162461bcd60e51b815260206004820152603560248201527f455243373231456e756d657261626c653a20636f6e736563757469766520747260448201527f616e7366657273206e6f7420737570706f727465640000000000000000000000606482015260840162000218565b816001600160a01b0385166200045b576200045581600880546000838152600960205260408120829055600182018355919091527ff3f7a9fe364faab93b216da50a3214154f22a0a2b415b23a84c8169e8b636ee30155565b62000481565b836001600160a01b0316856001600160a01b0316146200048157620004818582620004d4565b6001600160a01b038416620004a1576200049b8162000581565b620004c7565b846001600160a01b0316846001600160a01b031614620004c757620004c784826200063b565b5050505050565b50505050565b60006001620004ee846200068c60201b62000a131760201c565b620004fa91906200093a565b6000838152600760205260409020549091508082146200054e576001600160a01b03841660009081526006602090815260408083208584528252808320548484528184208190558352600790915290208190555b5060009182526007602090815260408084208490556001600160a01b039094168352600681528383209183525290812055565b60085460009062000595906001906200093a565b60008381526009602052604081205460088054939450909284908110620005c057620005c0620009db565b906000526020600020015490508060088381548110620005e457620005e4620009db565b60009182526020808320909101929092558281526009909152604080822084905585825281205560088054806200061f576200061f620009c5565b6001900381819060005260206000200160009055905550505050565b600062000653836200068c60201b62000a131760201c565b6001600160a01b039093166000908152600660209081526040808320868452825280832085905593825260079052919091209190915550565b60006001600160a01b038216620006f85760405162461bcd60e51b815260206004820152602960248201527f4552433732313a2061646472657373207a65726f206973206e6f7420612076616044820152683634b21037bbb732b960b91b606482015260840162000218565b506001600160a01b031660009081526003602052604090205490565b828054620007229062000954565b90600052602060002090601f01602090048101928262000746576000855562000791565b82601f106200076157805160ff191683800117855562000791565b8280016001018555821562000791579182015b828111156200079157825182559160200191906001019062000774565b506200079f929150620007a3565b5090565b5b808211156200079f5760008155600101620007a4565b80516001600160a01b0381168114620007d257600080fd5b919050565b600082601f830112620007e957600080fd5b81516001600160401b0380821115620008065762000806620009f1565b604051601f8301601f19908116603f01168101908282118183101715620008315762000831620009f1565b816040528381526020925086838588010111156200084e57600080fd5b600091505b8382101562000872578582018301518183018401529082019062000853565b83821115620008845760008385830101525b9695505050505050565b600080600080600080600060e0888a031215620008aa57600080fd5b87516001600160401b0380821115620008c257600080fd5b620008d08b838c01620007d7565b985060208a0151915080821115620008e757600080fd5b50620008f68a828b01620007d7565b9650506040880151945060608801519350608088015192506200091c60a08901620007ba565b91506200092c60c08901620007ba565b905092959891949750929550565b6000828210156200094f576200094f620009af565b500390565b600181811c908216806200096957607f821691505b602082108114156200098b57634e487b7160e01b600052602260045260246000fd5b50919050565b6000600019821415620009a857620009a8620009af565b5060010190565b634e487b7160e01b600052601160045260246000fd5b634e487b7160e01b600052603160045260246000fd5b634e487b7160e01b600052603260045260246000fd5b634e487b7160e01b600052604160045260246000fd5b6120888062000a176000396000f3fe6080604052600436106101b95760003560e01c80636352211e116100eb57806395d89b411161008f578063c87b56dd11610061578063c87b56dd146104d5578063d3dd5fe0146104f5578063e985e9c51461050a578063f2fde38b1461055357005b806395d89b411461046d578063a22cb46514610482578063b723b34e146104a2578063b88d4fde146104b557005b8063715018a6116100c8578063715018a61461040457806387be6d4e146104195780638d859f3e146104395780638da5cb5b1461044f57005b80636352211e146103af57806370a08231146103cf578063714c5398146103ef57005b80632f745c591161015d57806342842e0e1161012f57806342842e0e146103355780634f6ccce71461035557806355f804b3146103755780635c60596c1461039557005b80632f745c59146102ca57806332cb6b0c146102ea5780633ccfd60b146103005780633f0e636b1461031557005b8063095ea7b311610196578063095ea7b31461025157806309d42b301461027157806318160ddd1461029557806323b872dd146102aa57005b806301ffc9a7146101c257806306fdde03146101f7578063081812fc1461021957005b366101c057005b005b3480156101ce57600080fd5b506101e26101dd366004611c9a565b610573565b60405190151581526020015b60405180910390f35b34801561020357600080fd5b5061020c61059e565b6040516101ee9190611e01565b34801561022557600080fd5b50610239610234366004611d1d565b610630565b6040516001600160a01b0390911681526020016101ee565b34801561025d57600080fd5b506101c061026c366004611bc3565b610657565b34801561027d57600080fd5b50610287600d5481565b6040519081526020016101ee565b3480156102a157600080fd5b50600854610287565b3480156102b657600080fd5b506101c06102c5366004611acf565b610772565b3480156102d657600080fd5b506102876102e5366004611bc3565b6107a3565b3480156102f657600080fd5b50610287600c5481565b34801561030c57600080fd5b506101c0610839565b34801561032157600080fd5b506101c0610330366004611bed565b610878565b34801561034157600080fd5b506101c0610350366004611acf565b6108e6565b34801561036157600080fd5b50610287610370366004611d1d565b610901565b34801561038157600080fd5b506101c0610390366004611cd4565b610994565b3480156103a157600080fd5b50600e546101e29060ff1681565b3480156103bb57600080fd5b506102396103ca366004611d1d565b6109b3565b3480156103db57600080fd5b506102876103ea366004611a81565b610a13565b3480156103fb57600080fd5b5061020c610a99565b34801561041057600080fd5b506101c0610aa8565b34801561042557600080fd5b50601254610239906001600160a01b031681565b34801561044557600080fd5b50610287600b5481565b34801561045b57600080fd5b50600a546001600160a01b0316610239565b34801561047957600080fd5b5061020c610abc565b34801561048e57600080fd5b506101c061049d366004611b87565b610acb565b6101c06104b0366004611d36565b610ad6565b3480156104c157600080fd5b506101c06104d0366004611b0b565b610afd565b3480156104e157600080fd5b5061020c6104f0366004611d1d565b610b35565b34801561050157600080fd5b506101c0610be2565b34801561051657600080fd5b506101e2610525366004611a9c565b6001600160a01b03918216600090815260056020908152604080832093909416825291909152205460ff1690565b34801561055f57600080fd5b506101c061056e366004611a81565b610bfe565b60006001600160e01b0319821663780e9d6360e01b1480610598575061059882610c74565b92915050565b6060600080546105ad90611f8e565b80601f01602080910402602001604051908101604052809291908181526020018280546105d990611f8e565b80156106265780601f106105fb57610100808354040283529160200191610626565b820191906000526020600020905b81548152906001019060200180831161060957829003601f168201915b5050505050905090565b600061063b82610cc4565b506000908152600460205260409020546001600160a01b031690565b6000610662826109b3565b9050806001600160a01b0316836001600160a01b031614156106d55760405162461bcd60e51b815260206004820152602160248201527f4552433732313a20617070726f76616c20746f2063757272656e74206f776e656044820152603960f91b60648201526084015b60405180910390fd5b336001600160a01b03821614806106f157506106f18133610525565b6107635760405162461bcd60e51b815260206004820152603d60248201527f4552433732313a20617070726f76652063616c6c6572206973206e6f7420746f60448201527f6b656e206f776e6572206f7220617070726f76656420666f7220616c6c00000060648201526084016106cc565b61076d8383610d23565b505050565b61077c3382610d91565b6107985760405162461bcd60e51b81526004016106cc90611e14565b61076d838383610e10565b60006107ae83610a13565b82106108105760405162461bcd60e51b815260206004820152602b60248201527f455243373231456e756d657261626c653a206f776e657220696e646578206f7560448201526a74206f6620626f756e647360a81b60648201526084016106cc565b506001600160a01b03919091166000908152600660209081526040808320938352929052205490565b6000610846600247611f29565b60115490915061085f906001600160a01b031682610f81565b601054610875906001600160a01b031682610f81565b50565b61088061109a565b8060008151811061089357610893612010565b6020026020010151600b81905550806001815181106108b4576108b4612010565b6020026020010151600c81905550806002815181106108d5576108d5612010565b6020026020010151600d8190555050565b61076d83838360405180602001604052806000815250610afd565b600061090c60085490565b821061096f5760405162461bcd60e51b815260206004820152602c60248201527f455243373231456e756d657261626c653a20676c6f62616c20696e646578206f60448201526b7574206f6620626f756e647360a01b60648201526084016106cc565b6008828154811061098257610982612010565b90600052602060002001549050919050565b61099c61109a565b80516109af90600f906020840190611974565b5050565b6000818152600260205260408120546001600160a01b0316806105985760405162461bcd60e51b8152602060048201526018602482015277115490cdcc8c4e881a5b9d985b1a59081d1bdad95b88125160421b60448201526064016106cc565b60006001600160a01b038216610a7d5760405162461bcd60e51b815260206004820152602960248201527f4552433732313a2061646472657373207a65726f206973206e6f7420612076616044820152683634b21037bbb732b960b91b60648201526084016106cc565b506001600160a01b031660009081526003602052604090205490565b6060600f80546105ad90611f8e565b610ab061109a565b610aba60006110f4565b565b6060600180546105ad90611f8e565b6109af338383611146565b60005b8281101561076d57610aeb8282611215565b80610af581611fc9565b915050610ad9565b610b073383610d91565b610b235760405162461bcd60e51b81526004016106cc90611e14565b610b2f8484848461122f565b50505050565b6000818152600260205260409020546060906001600160a01b0316610b865760405162461bcd60e51b81526020600482015260076024820152661253959053125160ca1b60448201526064016106cc565b6000610b90610a99565b90506000815111610bb05760405180602001604052806000815250610bdb565b80610bba84611262565b604051602001610bcb929190611d85565b6040516020818303038152906040525b9392505050565b610bea61109a565b600e805460ff19811660ff90911615179055565b610c0661109a565b6001600160a01b038116610c6b5760405162461bcd60e51b815260206004820152602660248201527f4f776e61626c653a206e6577206f776e657220697320746865207a65726f206160448201526564647265737360d01b60648201526084016106cc565b610875816110f4565b60006001600160e01b031982166380ac58cd60e01b1480610ca557506001600160e01b03198216635b5e139f60e01b145b8061059857506301ffc9a760e01b6001600160e01b0319831614610598565b6000818152600260205260409020546001600160a01b03166108755760405162461bcd60e51b8152602060048201526018602482015277115490cdcc8c4e881a5b9d985b1a59081d1bdad95b88125160421b60448201526064016106cc565b600081815260046020526040902080546001600160a01b0319166001600160a01b0384169081179091558190610d58826109b3565b6001600160a01b03167f8c5be1e5ebec7d5bd14f71427d1e84f3dd0314c0f7b2291e5b200ac8c7c3b92560405160405180910390a45050565b600080610d9d836109b3565b9050806001600160a01b0316846001600160a01b03161480610de457506001600160a01b0380821660009081526005602090815260408083209388168352929052205460ff165b80610e085750836001600160a01b0316610dfd84610630565b6001600160a01b0316145b949350505050565b826001600160a01b0316610e23826109b3565b6001600160a01b031614610e495760405162461bcd60e51b81526004016106cc90611eb3565b6001600160a01b038216610eab5760405162461bcd60e51b8152602060048201526024808201527f4552433732313a207472616e7366657220746f20746865207a65726f206164646044820152637265737360e01b60648201526084016106cc565b610eb883838360016112ff565b826001600160a01b0316610ecb826109b3565b6001600160a01b031614610ef15760405162461bcd60e51b81526004016106cc90611eb3565b600081815260046020908152604080832080546001600160a01b03199081169091556001600160a01b0387811680865260038552838620805460001901905590871680865283862080546001019055868652600290945282852080549092168417909155905184937fddf252ad1be2c89b69c2b068fc378daa952ba7f163c4a11628f55a4df523b3ef91a4505050565b80471015610fd15760405162461bcd60e51b815260206004820152601d60248201527f416464726573733a20696e73756666696369656e742062616c616e636500000060448201526064016106cc565b6000826001600160a01b03168260405160006040518083038185875af1925050503d806000811461101e576040519150601f19603f3d011682016040523d82523d6000602084013e611023565b606091505b505090508061076d5760405162461bcd60e51b815260206004820152603a60248201527f416464726573733a20756e61626c6520746f2073656e642076616c75652c207260448201527f6563697069656e74206d6179206861766520726576657274656400000000000060648201526084016106cc565b600a546001600160a01b03163314610aba5760405162461bcd60e51b815260206004820181905260248201527f4f776e61626c653a2063616c6c6572206973206e6f7420746865206f776e657260448201526064016106cc565b600a80546001600160a01b038381166001600160a01b0319831681179093556040519116919082907f8be0079c531659141344cd1fd0a4f28419497f9722a3daafe3b4186f6b6457e090600090a35050565b816001600160a01b0316836001600160a01b031614156111a85760405162461bcd60e51b815260206004820152601960248201527f4552433732313a20617070726f766520746f2063616c6c65720000000000000060448201526064016106cc565b6001600160a01b03838116600081815260056020908152604080832094871680845294825291829020805460ff191686151590811790915591519182527f17307eab39ab6107e8899845ad3d59bd9653f200f220920489ca2b5937696c31910160405180910390a3505050565b6109af828260405180602001604052806000815250611433565b61123a848484610e10565b61124684848484611466565b610b2f5760405162461bcd60e51b81526004016106cc90611e61565b6060600061126f83611573565b600101905060008167ffffffffffffffff81111561128f5761128f612026565b6040519080825280601f01601f1916602001820160405280156112b9576020820181803683370190505b5090508181016020015b600019016f181899199a1a9b1b9c1cb0b131b232b360811b600a86061a8153600a85049450846112f2576112f7565b6112c3565b509392505050565b600181111561136e5760405162461bcd60e51b815260206004820152603560248201527f455243373231456e756d657261626c653a20636f6e7365637574697665207472604482015274185b9cd9995c9cc81b9bdd081cdd5c1c1bdc9d1959605a1b60648201526084016106cc565b816001600160a01b0385166113ca576113c581600880546000838152600960205260408120829055600182018355919091527ff3f7a9fe364faab93b216da50a3214154f22a0a2b415b23a84c8169e8b636ee30155565b6113ed565b836001600160a01b0316856001600160a01b0316146113ed576113ed858261164b565b6001600160a01b03841661140957611404816116e8565b61142c565b846001600160a01b0316846001600160a01b03161461142c5761142c8482611797565b5050505050565b61143d83836117db565b61144a6000848484611466565b61076d5760405162461bcd60e51b81526004016106cc90611e61565b60006001600160a01b0384163b1561156857604051630a85bd0160e11b81526001600160a01b0385169063150b7a02906114aa903390899088908890600401611dc4565b602060405180830381600087803b1580156114c457600080fd5b505af19250505080156114f4575060408051601f3d908101601f191682019092526114f191810190611cb7565b60015b61154e573d808015611522576040519150601f19603f3d011682016040523d82523d6000602084013e611527565b606091505b5080516115465760405162461bcd60e51b81526004016106cc90611e61565b805181602001fd5b6001600160e01b031916630a85bd0160e11b149050610e08565b506001949350505050565b60008072184f03e93ff9f4daa797ed6e38ed64bf6a1f0160401b83106115b25772184f03e93ff9f4daa797ed6e38ed64bf6a1f0160401b830492506040015b6d04ee2d6d415b85acef810000000083106115de576d04ee2d6d415b85acef8100000000830492506020015b662386f26fc1000083106115fc57662386f26fc10000830492506010015b6305f5e1008310611614576305f5e100830492506008015b612710831061162857612710830492506004015b6064831061163a576064830492506002015b600a83106105985760010192915050565b6000600161165884610a13565b6116629190611f4b565b6000838152600760205260409020549091508082146116b5576001600160a01b03841660009081526006602090815260408083208584528252808320548484528184208190558352600790915290208190555b5060009182526007602090815260408084208490556001600160a01b039094168352600681528383209183525290812055565b6008546000906116fa90600190611f4b565b6000838152600960205260408120546008805493945090928490811061172257611722612010565b90600052602060002001549050806008838154811061174357611743612010565b600091825260208083209091019290925582815260099091526040808220849055858252812055600880548061177b5761177b611ffa565b6001900381819060005260206000200160009055905550505050565b60006117a283610a13565b6001600160a01b039093166000908152600660209081526040808320868452825280832085905593825260079052919091209190915550565b6001600160a01b0382166118315760405162461bcd60e51b815260206004820181905260248201527f4552433732313a206d696e7420746f20746865207a65726f206164647265737360448201526064016106cc565b6000818152600260205260409020546001600160a01b0316156118965760405162461bcd60e51b815260206004820152601c60248201527f4552433732313a20746f6b656e20616c7265616479206d696e7465640000000060448201526064016106cc565b6118a46000838360016112ff565b6000818152600260205260409020546001600160a01b0316156119095760405162461bcd60e51b815260206004820152601c60248201527f4552433732313a20746f6b656e20616c7265616479206d696e7465640000000060448201526064016106cc565b6001600160a01b038216600081815260036020908152604080832080546001019055848352600290915280822080546001600160a01b0319168417905551839291907fddf252ad1be2c89b69c2b068fc378daa952ba7f163c4a11628f55a4df523b3ef908290a45050565b82805461198090611f8e565b90600052602060002090601f0160209004810192826119a257600085556119e8565b82601f106119bb57805160ff19168380011785556119e8565b828001600101855582156119e8579182015b828111156119e85782518255916020019190600101906119cd565b506119f49291506119f8565b5090565b5b808211156119f457600081556001016119f9565b600067ffffffffffffffff831115611a2757611a27612026565b611a3a601f8401601f1916602001611ef8565b9050828152838383011115611a4e57600080fd5b828260208301376000602084830101529392505050565b80356001600160a01b0381168114611a7c57600080fd5b919050565b600060208284031215611a9357600080fd5b610bdb82611a65565b60008060408385031215611aaf57600080fd5b611ab883611a65565b9150611ac660208401611a65565b90509250929050565b600080600060608486031215611ae457600080fd5b611aed84611a65565b9250611afb60208501611a65565b9150604084013590509250925092565b60008060008060808587031215611b2157600080fd5b611b2a85611a65565b9350611b3860208601611a65565b925060408501359150606085013567ffffffffffffffff811115611b5b57600080fd5b8501601f81018713611b6c57600080fd5b611b7b87823560208401611a0d565b91505092959194509250565b60008060408385031215611b9a57600080fd5b611ba383611a65565b915060208301358015158114611bb857600080fd5b809150509250929050565b60008060408385031215611bd657600080fd5b611bdf83611a65565b946020939093013593505050565b60006020808385031215611c0057600080fd5b823567ffffffffffffffff80821115611c1857600080fd5b818501915085601f830112611c2c57600080fd5b813581811115611c3e57611c3e612026565b8060051b9150611c4f848301611ef8565b8181528481019084860184860187018a1015611c6a57600080fd5b600095505b83861015611c8d578035835260019590950194918601918601611c6f565b5098975050505050505050565b600060208284031215611cac57600080fd5b8135610bdb8161203c565b600060208284031215611cc957600080fd5b8151610bdb8161203c565b600060208284031215611ce657600080fd5b813567ffffffffffffffff811115611cfd57600080fd5b8201601f81018413611d0e57600080fd5b610e0884823560208401611a0d565b600060208284031215611d2f57600080fd5b5035919050565b60008060408385031215611d4957600080fd5b82359150611ac660208401611a65565b60008151808452611d71816020860160208601611f62565b601f01601f19169290920160200192915050565b60008351611d97818460208801611f62565b835190830190611dab818360208801611f62565b64173539b7b760d91b9101908152600501949350505050565b6001600160a01b0385811682528416602082015260408101839052608060608201819052600090611df790830184611d59565b9695505050505050565b602081526000610bdb6020830184611d59565b6020808252602d908201527f4552433732313a2063616c6c6572206973206e6f7420746f6b656e206f776e6560408201526c1c881bdc88185c1c1c9bdd9959609a1b606082015260800190565b60208082526032908201527f4552433732313a207472616e7366657220746f206e6f6e20455243373231526560408201527131b2b4bb32b91034b6b83632b6b2b73a32b960711b606082015260800190565b60208082526025908201527f4552433732313a207472616e736665722066726f6d20696e636f72726563742060408201526437bbb732b960d91b606082015260800190565b604051601f8201601f1916810167ffffffffffffffff81118282101715611f2157611f21612026565b604052919050565b600082611f4657634e487b7160e01b600052601260045260246000fd5b500490565b600082821015611f5d57611f5d611fe4565b500390565b60005b83811015611f7d578181015183820152602001611f65565b83811115610b2f5750506000910152565b600181811c90821680611fa257607f821691505b60208210811415611fc357634e487b7160e01b600052602260045260246000fd5b50919050565b6000600019821415611fdd57611fdd611fe4565b5060010190565b634e487b7160e01b600052601160045260246000fd5b634e487b7160e01b600052603160045260246000fd5b634e487b7160e01b600052603260045260246000fd5b634e487b7160e01b600052604160045260246000fd5b6001600160e01b03198116811461087557600080fdfea2646970667358221220c1f5978cb32bdff766de74442e9897684610f40e6dd2b2e3812530d6f744ce2e64736f6c63430008070033",
    "linkReferences": {}
  },
  "methodIdentifiers": {
    "MAX_PER_MINT()": "09d42b30",
    "MAX_SUPPLY()": "32cb6b0c",
    "PRICE()": "8d859f3e",
    "approve(address,uint256)": "095ea7b3",
    "attestationContract()": "87be6d4e",
    "balanceOf(address)": "70a08231",
    "can_mint()": "5c60596c",
    "getApproved(uint256)": "081812fc",
    "getBaseURI()": "714c5398",
    "isApprovedForAll(address,address)": "e985e9c5",
    "mintTo(uint256,address)": "b723b34e",
    "name()": "06fdde03",
    "owner()": "8da5cb5b",
    "ownerOf(uint256)": "6352211e",
    "renounceOwnership()": "715018a6",
    "safeTransferFrom(address,address,uint256)": "42842e0e",
    "safeTransferFrom(address,address,uint256,bytes)": "b88d4fde",
    "setApprovalForAll(address,bool)": "a22cb465",
    "setBaseURI(string)": "55f804b3",
    "supportsInterface(bytes4)": "01ffc9a7",
    "symbol()": "95d89b41",
    "toggleMint()": "d3dd5fe0",
    "tokenByIndex(uint256)": "4f6ccce7",
    "tokenOfOwnerByIndex(address,uint256)": "2f745c59",
    "tokenURI(uint256)": "c87b56dd",
    "totalSupply()": "18160ddd",
    "transferFrom(address,address,uint256)": "23b872dd",
    "transferOwnership(address)": "f2fde38b",
    "updateParams(uint256[])": "3f0e636b",
    "withdraw()": "3ccfd60b"
  },
  "id": 33
}