{
  "abi": [
    {
      "inputs": [
        {
          "internalType": "string",
          "name": "_name",
          "type": "string"
        },
        {
          "internalType": "string",
          "name": "_symbol",
          "type": "string"
        },
        {
          "internalType": "uint256",
          "name": "_price",
          "type": "uint256"
        },
        {
          "internalType": "uint256",
          "name": "_maxSupply",
          "type": "uint256"
        },
        {
          "internalType": "uint256",
          "name": "_maxPerMint",
          "type": "uint256"
        },
        {
          "internalType": "address",
          "name": "artist",
          "type": "address"
        },
        {
          "internalType": "address",
          "name": "_attestationContract",
          "type": "address"
        }
      ],
      "stateMutability": "nonpayable",
      "type": "constructor"
    },
    {
      "anonymous": false,
      "inputs": [
        {
          "indexed": true,
          "internalType": "address",
          "name": "owner",
          "type": "address"
        },
        {
          "indexed": true,
          "internalType": "address",
          "name": "approved",
          "type": "address"
        },
        {
          "indexed": true,
          "internalType": "uint256",
          "name": "tokenId",
          "type": "uint256"
        }
      ],
      "name": "Approval",
      "type": "event"
    },
    {
      "anonymous": false,
      "inputs": [
        {
          "indexed": true,
          "internalType": "address",
          "name": "owner",
          "type": "address"
        },
        {
          "indexed": true,
          "internalType": "address",
          "name": "operator",
          "type": "address"
        },
        {
          "indexed": false,
          "internalType": "bool",
          "name": "approved",
          "type": "bool"
        }
      ],
      "name": "ApprovalForAll",
      "type": "event"
    },
    {
      "anonymous": false,
      "inputs": [
        {
          "indexed": true,
          "internalType": "address",
          "name": "previousOwner",
          "type": "address"
        },
        {
          "indexed": true,
          "internalType": "address",
          "name": "newOwner",
          "type": "address"
        }
      ],
      "name": "OwnershipTransferred",
      "type": "event"
    },
    {
      "anonymous": false,
      "inputs": [
        {
          "indexed": true,
          "internalType": "address",
          "name": "from",
          "type": "address"
        },
        {
          "indexed": true,
          "internalType": "address",
          "name": "to",
          "type": "address"
        },
        {
          "indexed": true,
          "internalType": "uint256",
          "name": "tokenId",
          "type": "uint256"
        }
      ],
      "name": "Transfer",
      "type": "event"
    },
    {
      "stateMutability": "payable",
      "type": "fallback"
    },
    {
      "inputs": [],
      "name": "MAX_PER_MINT",
      "outputs": [
        {
          "internalType": "uint256",
          "name": "",
          "type": "uint256"
        }
      ],
      "stateMutability": "view",
      "type": "function"
    },
    {
      "inputs": [],
      "name": "MAX_SUPPLY",
      "outputs": [
        {
          "internalType": "uint256",
          "name": "",
          "type": "uint256"
        }
      ],
      "stateMutability": "view",
      "type": "function"
    },
    {
      "inputs": [],
      "name": "PRICE",
      "outputs": [
        {
          "internalType": "uint256",
          "name": "",
          "type": "uint256"
        }
      ],
      "stateMutability": "view",
      "type": "function"
    },
    {
      "inputs": [
        {
          "internalType": "address",
          "name": "to",
          "type": "address"
        },
        {
          "internalType": "uint256",
          "name": "tokenId",
          "type": "uint256"
        }
      ],
      "name": "approve",
      "outputs": [],
      "stateMutability": "nonpayable",
      "type": "function"
    },
    {
      "inputs": [],
      "name": "attestationContract",
      "outputs": [
        {
          "internalType": "address",
          "name": "",
          "type": "address"
        }
      ],
      "stateMutability": "view",
      "type": "function"
    },
    {
      "inputs": [
        {
          "internalType": "address",
          "name": "owner",
          "type": "address"
        }
      ],
      "name": "balanceOf",
      "outputs": [
        {
          "internalType": "uint256",
          "name": "",
          "type": "uint256"
        }
      ],
      "stateMutability": "view",
      "type": "function"
    },
    {
      "inputs": [],
      "name": "can_mint",
      "outputs": [
        {
          "internalType": "bool",
          "name": "",
          "type": "bool"
        }
      ],
      "stateMutability": "view",
      "type": "function"
    },
    {
      "inputs": [
        {
          "internalType": "uint256",
          "name": "tokenId",
          "type": "uint256"
        }
      ],
      "name": "getApproved",
      "outputs": [
        {
          "internalType": "address",
          "name": "",
          "type": "address"
        }
      ],
      "stateMutability": "view",
      "type": "function"
    },
    {
      "inputs": [],
      "name": "getBaseURI",
      "outputs": [
        {
          "internalType": "string",
          "name": "",
          "type": "string"
        }
      ],
      "stateMutability": "view",
      "type": "function"
    },
    {
      "inputs": [
        {
          "internalType": "address",
          "name": "owner",
          "type": "address"
        },
        {
          "internalType": "address",
          "name": "operator",
          "type": "address"
        }
      ],
      "name": "isApprovedForAll",
      "outputs": [
        {
          "internalType": "bool",
          "name": "",
          "type": "bool"
        }
      ],
      "stateMutability": "view",
      "type": "function"
    },
    {
      "inputs": [
        {
          "internalType": "address",
          "name": "addr",
          "type": "address"
        },
        {
          "internalType": "bytes32",
          "name": "attestationUid",
          "type": "bytes32"
        }
      ],
      "name": "mintTo",
      "outputs": [],
      "stateMutability": "payable",
      "type": "function"
    },
    {
      "inputs": [],
      "name": "name",
      "outputs": [
        {
          "internalType": "string",
          "name": "",
          "type": "string"
        }
      ],
      "stateMutability": "view",
      "type": "function"
    },
    {
      "inputs": [],
      "name": "owner",
      "outputs": [
        {
          "internalType": "address",
          "name": "",
          "type": "address"
        }
      ],
      "stateMutability": "view",
      "type": "function"
    },
    {
      "inputs": [
        {
          "internalType": "uint256",
          "name": "tokenId",
          "type": "uint256"
        }
      ],
      "name": "ownerOf",
      "outputs": [
        {
          "internalType": "address",
          "name": "",
          "type": "address"
        }
      ],
      "stateMutability": "view",
      "type": "function"
    },
    {
      "inputs": [],
      "name": "renounceOwnership",
      "outputs": [],
      "stateMutability": "nonpayable",
      "type": "function"
    },
    {
      "inputs": [
        {
          "internalType": "address",
          "name": "from",
          "type": "address"
        },
        {
          "internalType": "address",
          "name": "to",
          "type": "address"
        },
        {
          "internalType": "uint256",
          "name": "tokenId",
          "type": "uint256"
        }
      ],
      "name": "safeTransferFrom",
      "outputs": [],
      "stateMutability": "nonpayable",
      "type": "function"
    },
    {
      "inputs": [
        {
          "internalType": "address",
          "name": "from",
          "type": "address"
        },
        {
          "internalType": "address",
          "name": "to",
          "type": "address"
        },
        {
          "internalType": "uint256",
          "name": "tokenId",
          "type": "uint256"
        },
        {
          "internalType": "bytes",
          "name": "data",
          "type": "bytes"
        }
      ],
      "name": "safeTransferFrom",
      "outputs": [],
      "stateMutability": "nonpayable",
      "type": "function"
    },
    {
      "inputs": [
        {
          "internalType": "address",
          "name": "operator",
          "type": "address"
        },
        {
          "internalType": "bool",
          "name": "approved",
          "type": "bool"
        }
      ],
      "name": "setApprovalForAll",
      "outputs": [],
      "stateMutability": "nonpayable",
      "type": "function"
    },
    {
      "inputs": [
        {
          "internalType": "string",
          "name": "baseURI",
          "type": "string"
        }
      ],
      "name": "setBaseURI",
      "outputs": [],
      "stateMutability": "nonpayable",
      "type": "function"
    },
    {
      "inputs": [
        {
          "internalType": "bytes4",
          "name": "interfaceId",
          "type": "bytes4"
        }
      ],
      "name": "supportsInterface",
      "outputs": [
        {
          "internalType": "bool",
          "name": "",
          "type": "bool"
        }
      ],
      "stateMutability": "view",
      "type": "function"
    },
    {
      "inputs": [],
      "name": "symbol",
      "outputs": [
        {
          "internalType": "string",
          "name": "",
          "type": "string"
        }
      ],
      "stateMutability": "view",
      "type": "function"
    },
    {
      "inputs": [],
      "name": "toggleMint",
      "outputs": [],
      "stateMutability": "nonpayable",
      "type": "function"
    },
    {
      "inputs": [
        {
          "internalType": "uint256",
          "name": "index",
          "type": "uint256"
        }
      ],
      "name": "tokenByIndex",
      "outputs": [
        {
          "internalType": "uint256",
          "name": "",
          "type": "uint256"
        }
      ],
      "stateMutability": "view",
      "type": "function"
    },
    {
      "inputs": [
        {
          "internalType": "address",
          "name": "owner",
          "type": "address"
        },
        {
          "internalType": "uint256",
          "name": "index",
          "type": "uint256"
        }
      ],
      "name": "tokenOfOwnerByIndex",
      "outputs": [
        {
          "internalType": "uint256",
          "name": "",
          "type": "uint256"
        }
      ],
      "stateMutability": "view",
      "type": "function"
    },
    {
      "inputs": [
        {
          "internalType": "uint256",
          "name": "tokenId",
          "type": "uint256"
        }
      ],
      "name": "tokenURI",
      "outputs": [
        {
          "internalType": "string",
          "name": "",
          "type": "string"
        }
      ],
      "stateMutability": "view",
      "type": "function"
    },
    {
      "inputs": [],
      "name": "totalSupply",
      "outputs": [
        {
          "internalType": "uint256",
          "name": "",
          "type": "uint256"
        }
      ],
      "stateMutability": "view",
      "type": "function"
    },
    {
      "inputs": [
        {
          "internalType": "address",
          "name": "from",
          "type": "address"
        },
        {
          "internalType": "address",
          "name": "to",
          "type": "address"
        },
        {
          "internalType": "uint256",
          "name": "tokenId",
          "type": "uint256"
        }
      ],
      "name": "transferFrom",
      "outputs": [],
      "stateMutability": "nonpayable",
      "type": "function"
    },
    {
      "inputs": [
        {
          "internalType": "address",
          "name": "newOwner",
          "type": "address"
        }
      ],
      "name": "transferOwnership",
      "outputs": [],
      "stateMutability": "nonpayable",
      "type": "function"
    },
    {
      "inputs": [
        {
          "internalType": "uint256[]",
          "name": "numericParams",
          "type": "uint256[]"
        }
      ],
      "name": "updateParams",
      "outputs": [],
      "stateMutability": "nonpayable",
      "type": "function"
    },
    {
      "inputs": [],
      "name": "withdraw",
      "outputs": [],
      "stateMutability": "nonpayable",
      "type": "function"
    },
    {
      "stateMutability": "payable",
      "type": "receive"
    }
  ],
  "bytecode": {
    "object": "0x60806040523480156200001157600080fd5b506040516200271038038062002710833981016040819052620000349162000556565b8651879087906200004d906000906020850190620003dc565b50805162000063906001906020840190620003dc565b505050620000806200007a6200016f60201b60201c565b62000173565b600b859055600c849055600d839055601080546001600160a01b0319166001600160a01b038416179055620000bd600a546001600160a01b031690565b601180546001600160a01b03199081166001600160a01b03938416179091556012805490911691831691909117905560005b6005811015620001265760105462000111906001600160a01b031682620001c5565b806200011d816200063f565b915050620000ef565b5060055b600f81101562000161576011546200014c906001600160a01b031682620001c5565b8062000158816200063f565b9150506200012a565b50505050505050506200067f565b3390565b600a80546001600160a01b038381166001600160a01b0319831681179093556040519116919082907f8be0079c531659141344cd1fd0a4f28419497f9722a3daafe3b4186f6b6457e090600090a35050565b6001600160a01b038216620002215760405162461bcd60e51b815260206004820181905260248201527f4552433732313a206d696e7420746f20746865207a65726f206164647265737360448201526064015b60405180910390fd5b6000818152600260205260409020546001600160a01b031615620002885760405162461bcd60e51b815260206004820152601c60248201527f4552433732313a20746f6b656e20616c7265616479206d696e74656400000000604482015260640162000218565b620002986000838360016200036a565b6000818152600260205260409020546001600160a01b031615620002ff5760405162461bcd60e51b815260206004820152601c60248201527f4552433732313a20746f6b656e20616c7265616479206d696e74656400000000604482015260640162000218565b6001600160a01b038216600081815260036020908152604080832080546001019055848352600290915280822080546001600160a01b0319168417905551839291907fddf252ad1be2c89b69c2b068fc378daa952ba7f163c4a11628f55a4df523b3ef908290a45050565b6001600160a01b03841615806200038857506001600160a01b038316155b620003d65760405162461bcd60e51b815260206004820152601360248201527f43616e6e6f74207472616e736665722053425400000000000000000000000000604482015260640162000218565b50505050565b828054620003ea9062000602565b90600052602060002090601f0160209004810192826200040e576000855562000459565b82601f106200042957805160ff191683800117855562000459565b8280016001018555821562000459579182015b82811115620004595782518255916020019190600101906200043c565b50620004679291506200046b565b5090565b5b808211156200046757600081556001016200046c565b80516001600160a01b03811681146200049a57600080fd5b919050565b600082601f830112620004b157600080fd5b81516001600160401b0380821115620004ce57620004ce62000669565b604051601f8301601f19908116603f01168101908282118183101715620004f957620004f962000669565b816040528381526020925086838588010111156200051657600080fd5b600091505b838210156200053a57858201830151818301840152908201906200051b565b838211156200054c5760008385830101525b9695505050505050565b600080600080600080600060e0888a0312156200057257600080fd5b87516001600160401b03808211156200058a57600080fd5b620005988b838c016200049f565b985060208a0151915080821115620005af57600080fd5b50620005be8a828b016200049f565b965050604088015194506060880151935060808801519250620005e460a0890162000482565b9150620005f460c0890162000482565b905092959891949750929550565b600181811c908216806200061757607f821691505b602082108114156200063957634e487b7160e01b600052602260045260246000fd5b50919050565b60006000198214156200066257634e487b7160e01b600052601160045260246000fd5b5060010190565b634e487b7160e01b600052604160045260246000fd5b612081806200068f6000396000f3fe6080604052600436106101b95760003560e01c80636352211e116100eb57806395d89b411161008f578063c87b56dd11610061578063c87b56dd146104d5578063d3dd5fe0146104f5578063e985e9c51461050a578063f2fde38b1461055357005b806395d89b411461046d578063a22cb46514610482578063adf288df146104a2578063b88d4fde146104b557005b8063715018a6116100c8578063715018a61461040457806387be6d4e146104195780638d859f3e146104395780638da5cb5b1461044f57005b80636352211e146103af57806370a08231146103cf578063714c5398146103ef57005b80632f745c591161015d57806342842e0e1161012f57806342842e0e146103355780634f6ccce71461035557806355f804b3146103755780635c60596c1461039557005b80632f745c59146102ca57806332cb6b0c146102ea5780633ccfd60b146103005780633f0e636b1461031557005b8063095ea7b311610196578063095ea7b31461025157806309d42b301461027157806318160ddd1461029557806323b872dd146102aa57005b806301ffc9a7146101c257806306fdde03146101f7578063081812fc1461021957005b366101c057005b005b3480156101ce57600080fd5b506101e26101dd366004611ba8565b610573565b60405190151581526020015b60405180910390f35b34801561020357600080fd5b5061020c61059e565b6040516101ee9190611de3565b34801561022557600080fd5b50610239610234366004611d22565b610630565b6040516001600160a01b0390911681526020016101ee565b34801561025d57600080fd5b506101c061026c366004611acf565b610657565b34801561027d57600080fd5b50610287600d5481565b6040519081526020016101ee565b3480156102a157600080fd5b50600854610287565b3480156102b657600080fd5b506101c06102c53660046119e0565b610772565b3480156102d657600080fd5b506102876102e5366004611acf565b6107a3565b3480156102f657600080fd5b50610287600c5481565b34801561030c57600080fd5b506101c0610839565b34801561032157600080fd5b506101c0610330366004611afb565b610878565b34801561034157600080fd5b506101c06103503660046119e0565b6108e6565b34801561036157600080fd5b50610287610370366004611d22565b610901565b34801561038157600080fd5b506101c0610390366004611be2565b610994565b3480156103a157600080fd5b50600e546101e29060ff1681565b3480156103bb57600080fd5b506102396103ca366004611d22565b6109b3565b3480156103db57600080fd5b506102876103ea36600461198a565b610a13565b3480156103fb57600080fd5b5061020c610a99565b34801561041057600080fd5b506101c0610aa8565b34801561042557600080fd5b50601254610239906001600160a01b031681565b34801561044557600080fd5b50610287600b5481565b34801561045b57600080fd5b50600a546001600160a01b0316610239565b34801561047957600080fd5b5061020c610abc565b34801561048e57600080fd5b506101c061049d366004611aa1565b610acb565b6101c06104b0366004611acf565b610ad6565b3480156104c157600080fd5b506101c06104d0366004611a21565b610c29565b3480156104e157600080fd5b5061020c6104f0366004611d22565b610c61565b34801561050157600080fd5b506101c0610d0e565b34801561051657600080fd5b506101e26105253660046119a7565b6001600160a01b03918216600090815260056020908152604080832093909416825291909152205460ff1690565b34801561055f57600080fd5b506101c061056e36600461198a565b610d2a565b60006001600160e01b0319821663780e9d6360e01b1480610598575061059882610da0565b92915050565b6060600080546105ad90611fab565b80601f01602080910402602001604051908101604052809291908181526020018280546105d990611fab565b80156106265780601f106105fb57610100808354040283529160200191610626565b820191906000526020600020905b81548152906001019060200180831161060957829003601f168201915b5050505050905090565b600061063b82610df0565b506000908152600460205260409020546001600160a01b031690565b6000610662826109b3565b9050806001600160a01b0316836001600160a01b031614156106d55760405162461bcd60e51b815260206004820152602160248201527f4552433732313a20617070726f76616c20746f2063757272656e74206f776e656044820152603960f91b60648201526084015b60405180910390fd5b336001600160a01b03821614806106f157506106f18133610525565b6107635760405162461bcd60e51b815260206004820152603d60248201527f4552433732313a20617070726f76652063616c6c6572206973206e6f7420746f60448201527f6b656e206f776e6572206f7220617070726f76656420666f7220616c6c00000060648201526084016106cc565b61076d8383610e4f565b505050565b61077c3382610ebd565b6107985760405162461bcd60e51b81526004016106cc90611df6565b61076d838383610f3c565b60006107ae83610a13565b82106108105760405162461bcd60e51b815260206004820152602b60248201527f455243373231456e756d657261626c653a206f776e657220696e646578206f7560448201526a74206f6620626f756e647360a81b60648201526084016106cc565b506001600160a01b03919091166000908152600660209081526040808320938352929052205490565b6000610846600247611f5d565b60115490915061085f906001600160a01b0316826110ad565b601054610875906001600160a01b0316826110ad565b50565b6108806111c6565b8060008151811061089357610893611fe6565b6020026020010151600b81905550806001815181106108b4576108b4611fe6565b6020026020010151600c81905550806002815181106108d5576108d5611fe6565b6020026020010151600d8190555050565b61076d83838360405180602001604052806000815250610c29565b600061090c60085490565b821061096f5760405162461bcd60e51b815260206004820152602c60248201527f455243373231456e756d657261626c653a20676c6f62616c20696e646578206f60448201526b7574206f6620626f756e647360a01b60648201526084016106cc565b6008828154811061098257610982611fe6565b90600052602060002001549050919050565b61099c6111c6565b80516109af90600f90602084019061183b565b5050565b6000818152600260205260408120546001600160a01b0316806105985760405162461bcd60e51b8152602060048201526018602482015277115490cdcc8c4e881a5b9d985b1a59081d1bdad95b88125160421b60448201526064016106cc565b60006001600160a01b038216610a7d5760405162461bcd60e51b815260206004820152602960248201527f4552433732313a2061646472657373207a65726f206973206e6f7420612076616044820152683634b21037bbb732b960b91b60648201526084016106cc565b506001600160a01b031660009081526003602052604090205490565b6060600f80546105ad90611fab565b610ab06111c6565b610aba6000611220565b565b6060600180546105ad90611fab565b6109af338383611272565b6012546040516328c44a9960e21b8152600481018390526000916001600160a01b03169063a3112a649060240160006040518083038186803b158015610b1b57600080fd5b505afa158015610b2f573d6000803e3d6000fd5b505050506040513d6000823e601f3d908101601f19168201604052610b579190810190611c2b565b9050806080015167ffffffffffffffff16600014610bad5760405162461bcd60e51b8152602060048201526013602482015272105d1d195cdd185d1a5bdb881c995d9bdad959606a1b60448201526064016106cc565b606081015167ffffffffffffffff161580610bd5575042816060015167ffffffffffffffff16115b610c175760405162461bcd60e51b8152602060048201526013602482015272105d1d195cdd185d1a5bdb88195e1c1a5c9959606a1b60448201526064016106cc565b61076d83610c2460085490565b611341565b610c333383610ebd565b610c4f5760405162461bcd60e51b81526004016106cc90611df6565b610c5b8484848461135b565b50505050565b6000818152600260205260409020546060906001600160a01b0316610cb25760405162461bcd60e51b81526020600482015260076024820152661253959053125160ca1b60448201526064016106cc565b6000610cbc610a99565b90506000815111610cdc5760405180602001604052806000815250610d07565b80610ce68461138e565b604051602001610cf7929190611d67565b6040516020818303038152906040525b9392505050565b610d166111c6565b600e805460ff19811660ff90911615179055565b610d326111c6565b6001600160a01b038116610d975760405162461bcd60e51b815260206004820152602660248201527f4f776e61626c653a206e6577206f776e657220697320746865207a65726f206160448201526564647265737360d01b60648201526084016106cc565b61087581611220565b60006001600160e01b031982166380ac58cd60e01b1480610dd157506001600160e01b03198216635b5e139f60e01b145b8061059857506301ffc9a760e01b6001600160e01b0319831614610598565b6000818152600260205260409020546001600160a01b03166108755760405162461bcd60e51b8152602060048201526018602482015277115490cdcc8c4e881a5b9d985b1a59081d1bdad95b88125160421b60448201526064016106cc565b600081815260046020526040902080546001600160a01b0319166001600160a01b0384169081179091558190610e84826109b3565b6001600160a01b03167f8c5be1e5ebec7d5bd14f71427d1e84f3dd0314c0f7b2291e5b200ac8c7c3b92560405160405180910390a45050565b600080610ec9836109b3565b9050806001600160a01b0316846001600160a01b03161480610f1057506001600160a01b0380821660009081526005602090815260408083209388168352929052205460ff165b80610f345750836001600160a01b0316610f2984610630565b6001600160a01b0316145b949350505050565b826001600160a01b0316610f4f826109b3565b6001600160a01b031614610f755760405162461bcd60e51b81526004016106cc90611e95565b6001600160a01b038216610fd75760405162461bcd60e51b8152602060048201526024808201527f4552433732313a207472616e7366657220746f20746865207a65726f206164646044820152637265737360e01b60648201526084016106cc565b610fe4838383600161142b565b826001600160a01b0316610ff7826109b3565b6001600160a01b03161461101d5760405162461bcd60e51b81526004016106cc90611e95565b600081815260046020908152604080832080546001600160a01b03199081169091556001600160a01b0387811680865260038552838620805460001901905590871680865283862080546001019055868652600290945282852080549092168417909155905184937fddf252ad1be2c89b69c2b068fc378daa952ba7f163c4a11628f55a4df523b3ef91a4505050565b804710156110fd5760405162461bcd60e51b815260206004820152601d60248201527f416464726573733a20696e73756666696369656e742062616c616e636500000060448201526064016106cc565b6000826001600160a01b03168260405160006040518083038185875af1925050503d806000811461114a576040519150601f19603f3d011682016040523d82523d6000602084013e61114f565b606091505b505090508061076d5760405162461bcd60e51b815260206004820152603a60248201527f416464726573733a20756e61626c6520746f2073656e642076616c75652c207260448201527f6563697069656e74206d6179206861766520726576657274656400000000000060648201526084016106cc565b600a546001600160a01b03163314610aba5760405162461bcd60e51b815260206004820181905260248201527f4f776e61626c653a2063616c6c6572206973206e6f7420746865206f776e657260448201526064016106cc565b600a80546001600160a01b038381166001600160a01b0319831681179093556040519116919082907f8be0079c531659141344cd1fd0a4f28419497f9722a3daafe3b4186f6b6457e090600090a35050565b816001600160a01b0316836001600160a01b031614156112d45760405162461bcd60e51b815260206004820152601960248201527f4552433732313a20617070726f766520746f2063616c6c65720000000000000060448201526064016106cc565b6001600160a01b03838116600081815260056020908152604080832094871680845294825291829020805460ff191686151590811790915591519182527f17307eab39ab6107e8899845ad3d59bd9653f200f220920489ca2b5937696c31910160405180910390a3505050565b6109af82826040518060200160405280600081525061148a565b611366848484610f3c565b611372848484846114bd565b610c5b5760405162461bcd60e51b81526004016106cc90611e43565b6060600061139b836115ca565b600101905060008167ffffffffffffffff8111156113bb576113bb611ffc565b6040519080825280601f01601f1916602001820160405280156113e5576020820181803683370190505b5090508181016020015b600019016f181899199a1a9b1b9c1cb0b131b232b360811b600a86061a8153600a850494508461141e57611423565b6113ef565b509392505050565b6001600160a01b038416158061144857506001600160a01b038316155b610c5b5760405162461bcd60e51b815260206004820152601360248201527210d85b9b9bdd081d1c985b9cd9995c8814d095606a1b60448201526064016106cc565b61149483836116a2565b6114a160008484846114bd565b61076d5760405162461bcd60e51b81526004016106cc90611e43565b60006001600160a01b0384163b156115bf57604051630a85bd0160e11b81526001600160a01b0385169063150b7a0290611501903390899088908890600401611da6565b602060405180830381600087803b15801561151b57600080fd5b505af192505050801561154b575060408051601f3d908101601f1916820190925261154891810190611bc5565b60015b6115a5573d808015611579576040519150601f19603f3d011682016040523d82523d6000602084013e61157e565b606091505b50805161159d5760405162461bcd60e51b81526004016106cc90611e43565b805181602001fd5b6001600160e01b031916630a85bd0160e11b149050610f34565b506001949350505050565b60008072184f03e93ff9f4daa797ed6e38ed64bf6a1f0160401b83106116095772184f03e93ff9f4daa797ed6e38ed64bf6a1f0160401b830492506040015b6d04ee2d6d415b85acef81000000008310611635576d04ee2d6d415b85acef8100000000830492506020015b662386f26fc10000831061165357662386f26fc10000830492506010015b6305f5e100831061166b576305f5e100830492506008015b612710831061167f57612710830492506004015b60648310611691576064830492506002015b600a83106105985760010192915050565b6001600160a01b0382166116f85760405162461bcd60e51b815260206004820181905260248201527f4552433732313a206d696e7420746f20746865207a65726f206164647265737360448201526064016106cc565b6000818152600260205260409020546001600160a01b03161561175d5760405162461bcd60e51b815260206004820152601c60248201527f4552433732313a20746f6b656e20616c7265616479206d696e7465640000000060448201526064016106cc565b61176b60008383600161142b565b6000818152600260205260409020546001600160a01b0316156117d05760405162461bcd60e51b815260206004820152601c60248201527f4552433732313a20746f6b656e20616c7265616479206d696e7465640000000060448201526064016106cc565b6001600160a01b038216600081815260036020908152604080832080546001019055848352600290915280822080546001600160a01b0319168417905551839291907fddf252ad1be2c89b69c2b068fc378daa952ba7f163c4a11628f55a4df523b3ef908290a45050565b82805461184790611fab565b90600052602060002090601f01602090048101928261186957600085556118af565b82601f1061188257805160ff19168380011785556118af565b828001600101855582156118af579182015b828111156118af578251825591602001919060010190611894565b506118bb9291506118bf565b5090565b5b808211156118bb57600081556001016118c0565b60006118e76118e284611f35565b611f04565b90508281528383830111156118fb57600080fd5b828260208301376000602084830101529392505050565b805161191d81612012565b919050565b805161191d81612027565b600082601f83011261193e57600080fd5b815161194c6118e282611f35565b81815284602083860101111561196157600080fd5b610f34826020830160208701611f7f565b805167ffffffffffffffff8116811461191d57600080fd5b60006020828403121561199c57600080fd5b8135610d0781612012565b600080604083850312156119ba57600080fd5b82356119c581612012565b915060208301356119d581612012565b809150509250929050565b6000806000606084860312156119f557600080fd5b8335611a0081612012565b92506020840135611a1081612012565b929592945050506040919091013590565b60008060008060808587031215611a3757600080fd5b8435611a4281612012565b93506020850135611a5281612012565b925060408501359150606085013567ffffffffffffffff811115611a7557600080fd5b8501601f81018713611a8657600080fd5b611a95878235602084016118d4565b91505092959194509250565b60008060408385031215611ab457600080fd5b8235611abf81612012565b915060208301356119d581612027565b60008060408385031215611ae257600080fd5b8235611aed81612012565b946020939093013593505050565b60006020808385031215611b0e57600080fd5b823567ffffffffffffffff80821115611b2657600080fd5b818501915085601f830112611b3a57600080fd5b813581811115611b4c57611b4c611ffc565b8060051b9150611b5d848301611f04565b8181528481019084860184860187018a1015611b7857600080fd5b600095505b83861015611b9b578035835260019590950194918601918601611b7d565b5098975050505050505050565b600060208284031215611bba57600080fd5b8135610d0781612035565b600060208284031215611bd757600080fd5b8151610d0781612035565b600060208284031215611bf457600080fd5b813567ffffffffffffffff811115611c0b57600080fd5b8201601f81018413611c1c57600080fd5b610f34848235602084016118d4565b600060208284031215611c3d57600080fd5b815167ffffffffffffffff80821115611c5557600080fd5b908301906101408286031215611c6a57600080fd5b611c72611eda565b8251815260208301516020820152611c8c60408401611972565b6040820152611c9d60608401611972565b6060820152611cae60808401611972565b608082015260a083015160a0820152611cc960c08401611912565b60c0820152611cda60e08401611912565b60e0820152610100611ced818501611922565b908201526101208381015183811115611d0557600080fd5b611d118882870161192d565b918301919091525095945050505050565b600060208284031215611d3457600080fd5b5035919050565b60008151808452611d53816020860160208601611f7f565b601f01601f19169290920160200192915050565b60008351611d79818460208801611f7f565b835190830190611d8d818360208801611f7f565b64173539b7b760d91b9101908152600501949350505050565b6001600160a01b0385811682528416602082015260408101839052608060608201819052600090611dd990830184611d3b565b9695505050505050565b602081526000610d076020830184611d3b565b6020808252602d908201527f4552433732313a2063616c6c6572206973206e6f7420746f6b656e206f776e6560408201526c1c881bdc88185c1c1c9bdd9959609a1b606082015260800190565b60208082526032908201527f4552433732313a207472616e7366657220746f206e6f6e20455243373231526560408201527131b2b4bb32b91034b6b83632b6b2b73a32b960711b606082015260800190565b60208082526025908201527f4552433732313a207472616e736665722066726f6d20696e636f72726563742060408201526437bbb732b960d91b606082015260800190565b604051610140810167ffffffffffffffff81118282101715611efe57611efe611ffc565b60405290565b604051601f8201601f1916810167ffffffffffffffff81118282101715611f2d57611f2d611ffc565b604052919050565b600067ffffffffffffffff821115611f4f57611f4f611ffc565b50601f01601f191660200190565b600082611f7a57634e487b7160e01b600052601260045260246000fd5b500490565b60005b83811015611f9a578181015183820152602001611f82565b83811115610c5b5750506000910152565b600181811c90821680611fbf57607f821691505b60208210811415611fe057634e487b7160e01b600052602260045260246000fd5b50919050565b634e487b7160e01b600052603260045260246000fd5b634e487b7160e01b600052604160045260246000fd5b6001600160a01b038116811461087557600080fd5b801515811461087557600080fd5b6001600160e01b03198116811461087557600080fdfea264697066735822122099f4c7d23eb337fa592642545f8d28eb4ac363d5487753f5f13a70bf14ee6f5c64736f6c63430008070033",
    "linkReferences": {}
  },
  "methodIdentifiers": {
    "MAX_PER_MINT()": "09d42b30",
    "MAX_SUPPLY()": "32cb6b0c",
    "PRICE()": "8d859f3e",
    "approve(address,uint256)": "095ea7b3",
    "attestationContract()": "87be6d4e",
    "balanceOf(address)": "70a08231",
    "can_mint()": "5c60596c",
    "getApproved(uint256)": "081812fc",
    "getBaseURI()": "714c5398",
    "isApprovedForAll(address,address)": "e985e9c5",
    "mintTo(address,bytes32)": "adf288df",
    "name()": "06fdde03",
    "owner()": "8da5cb5b",
    "ownerOf(uint256)": "6352211e",
    "renounceOwnership()": "715018a6",
    "safeTransferFrom(address,address,uint256)": "42842e0e",
    "safeTransferFrom(address,address,uint256,bytes)": "b88d4fde",
    "setApprovalForAll(address,bool)": "a22cb465",
    "setBaseURI(string)": "55f804b3",
    "supportsInterface(bytes4)": "01ffc9a7",
    "symbol()": "95d89b41",
    "toggleMint()": "d3dd5fe0",
    "tokenByIndex(uint256)": "4f6ccce7",
    "tokenOfOwnerByIndex(address,uint256)": "2f745c59",
    "tokenURI(uint256)": "c87b56dd",
    "totalSupply()": "18160ddd",
    "transferFrom(address,address,uint256)": "23b872dd",
    "transferOwnership(address)": "f2fde38b",
    "updateParams(uint256[])": "3f0e636b",
    "withdraw()": "3ccfd60b"
  },
  "id": 18
}